{
  "_format": "hh-sol-artifact-1",
  "contractName": "Marketplace",
  "sourceName": "contracts/FruitMarketplace.sol",
  "abi": [
    {
      "anonymous": false,
      "inputs": [
        {
          "indexed": false,
          "internalType": "uint256",
          "name": "productId",
          "type": "uint256"
        },
        {
          "indexed": false,
          "internalType": "string",
          "name": "name",
          "type": "string"
        },
        {
          "indexed": false,
          "internalType": "string",
          "name": "description",
          "type": "string"
        },
        {
          "indexed": false,
          "internalType": "uint256",
          "name": "price",
          "type": "uint256"
        },
        {
          "indexed": false,
          "internalType": "uint256",
          "name": "stock",
          "type": "uint256"
        }
      ],
      "name": "ProductAdded",
      "type": "event"
    },
    {
      "anonymous": false,
      "inputs": [
        {
          "indexed": false,
          "internalType": "uint256",
          "name": "productId",
          "type": "uint256"
        },
        {
          "indexed": false,
          "internalType": "address",
          "name": "buyer",
          "type": "address"
        },
        {
          "indexed": false,
          "internalType": "uint256",
          "name": "stock",
          "type": "uint256"
        }
      ],
      "name": "ProductPurchased",
      "type": "event"
    },
    {
      "anonymous": false,
      "inputs": [
        {
          "indexed": false,
          "internalType": "uint256",
          "name": "productId",
          "type": "uint256"
        }
      ],
      "name": "ProductRemoved",
      "type": "event"
    },
    {
      "anonymous": false,
      "inputs": [
        {
          "indexed": false,
          "internalType": "address",
          "name": "seller",
          "type": "address"
        },
        {
          "indexed": false,
          "internalType": "uint256",
          "name": "rating",
          "type": "uint256"
        },
        {
          "indexed": false,
          "internalType": "address",
          "name": "buyer",
          "type": "address"
        }
      ],
      "name": "SellerRated",
      "type": "event"
    },
    {
      "inputs": [
        {
          "internalType": "string",
          "name": "_name",
          "type": "string"
        },
        {
          "internalType": "string",
          "name": "_description",
          "type": "string"
        },
        {
          "internalType": "uint256",
          "name": "_price",
          "type": "uint256"
        },
        {
          "internalType": "uint256",
          "name": "_stock",
          "type": "uint256"
        }
      ],
      "name": "addProduct",
      "outputs": [],
      "stateMutability": "nonpayable",
      "type": "function"
    },
    {
      "inputs": [],
      "name": "getAllProducts",
      "outputs": [
        {
          "components": [
            {
              "internalType": "uint256",
              "name": "id",
              "type": "uint256"
            },
            {
              "internalType": "address payable",
              "name": "seller",
              "type": "address"
            },
            {
              "internalType": "string",
              "name": "name",
              "type": "string"
            },
            {
              "internalType": "string",
              "name": "description",
              "type": "string"
            },
            {
              "internalType": "uint256",
              "name": "price",
              "type": "uint256"
            },
            {
              "internalType": "uint256",
              "name": "stock",
              "type": "uint256"
            },
            {
              "internalType": "bool",
              "name": "exists",
              "type": "bool"
            }
          ],
          "internalType": "struct Marketplace.Product[]",
          "name": "",
          "type": "tuple[]"
        }
      ],
      "stateMutability": "view",
      "type": "function"
    },
    {
      "inputs": [
        {
          "internalType": "address",
          "name": "owner",
          "type": "address"
        }
      ],
      "name": "getAllProductsByOwner",
      "outputs": [
        {
          "components": [
            {
              "internalType": "uint256",
              "name": "id",
              "type": "uint256"
            },
            {
              "internalType": "address payable",
              "name": "seller",
              "type": "address"
            },
            {
              "internalType": "string",
              "name": "name",
              "type": "string"
            },
            {
              "internalType": "string",
              "name": "description",
              "type": "string"
            },
            {
              "internalType": "uint256",
              "name": "price",
              "type": "uint256"
            },
            {
              "internalType": "uint256",
              "name": "stock",
              "type": "uint256"
            },
            {
              "internalType": "bool",
              "name": "exists",
              "type": "bool"
            }
          ],
          "internalType": "struct Marketplace.Product[]",
          "name": "",
          "type": "tuple[]"
        }
      ],
      "stateMutability": "view",
      "type": "function"
    },
    {
      "inputs": [],
      "name": "getAllTransactions",
      "outputs": [
        {
          "components": [
            {
              "internalType": "address",
              "name": "buyer",
              "type": "address"
            },
            {
              "internalType": "uint256",
              "name": "productId",
              "type": "uint256"
            },
            {
              "internalType": "uint256",
              "name": "quantity",
              "type": "uint256"
            },
            {
              "internalType": "uint256",
              "name": "timestamp",
              "type": "uint256"
            }
          ],
          "internalType": "struct Marketplace.Transaction[]",
          "name": "",
          "type": "tuple[]"
        }
      ],
      "stateMutability": "view",
      "type": "function"
    },
    {
      "inputs": [
        {
          "internalType": "address",
          "name": "_seller",
          "type": "address"
        }
      ],
      "name": "getAverageRating",
      "outputs": [
        {
          "internalType": "uint256",
          "name": "",
          "type": "uint256"
        }
      ],
      "stateMutability": "view",
      "type": "function"
    },
    {
      "inputs": [
        {
          "internalType": "uint256",
          "name": "_productId",
          "type": "uint256"
        }
      ],
      "name": "getProduct",
      "outputs": [
        {
          "internalType": "uint256",
          "name": "id",
          "type": "uint256"
        },
        {
          "internalType": "address",
          "name": "seller",
          "type": "address"
        },
        {
          "internalType": "string",
          "name": "name",
          "type": "string"
        },
        {
          "internalType": "string",
          "name": "description",
          "type": "string"
        },
        {
          "internalType": "uint256",
          "name": "price",
          "type": "uint256"
        },
        {
          "internalType": "uint256",
          "name": "stock",
          "type": "uint256"
        }
      ],
      "stateMutability": "view",
      "type": "function"
    },
    {
      "inputs": [
        {
          "internalType": "address",
          "name": "_buyer",
          "type": "address"
        }
      ],
      "name": "getTransactionsByBuyer",
      "outputs": [
        {
          "components": [
            {
              "internalType": "address",
              "name": "buyer",
              "type": "address"
            },
            {
              "internalType": "uint256",
              "name": "productId",
              "type": "uint256"
            },
            {
              "internalType": "uint256",
              "name": "quantity",
              "type": "uint256"
            },
            {
              "internalType": "uint256",
              "name": "timestamp",
              "type": "uint256"
            }
          ],
          "internalType": "struct Marketplace.Transaction[]",
          "name": "",
          "type": "tuple[]"
        }
      ],
      "stateMutability": "view",
      "type": "function"
    },
    {
      "inputs": [],
      "name": "productCounter",
      "outputs": [
        {
          "internalType": "uint256",
          "name": "",
          "type": "uint256"
        }
      ],
      "stateMutability": "view",
      "type": "function"
    },
    {
      "inputs": [
        {
          "internalType": "uint256",
          "name": "",
          "type": "uint256"
        }
      ],
      "name": "products",
      "outputs": [
        {
          "internalType": "uint256",
          "name": "id",
          "type": "uint256"
        },
        {
          "internalType": "address payable",
          "name": "seller",
          "type": "address"
        },
        {
          "internalType": "string",
          "name": "name",
          "type": "string"
        },
        {
          "internalType": "string",
          "name": "description",
          "type": "string"
        },
        {
          "internalType": "uint256",
          "name": "price",
          "type": "uint256"
        },
        {
          "internalType": "uint256",
          "name": "stock",
          "type": "uint256"
        },
        {
          "internalType": "bool",
          "name": "exists",
          "type": "bool"
        }
      ],
      "stateMutability": "view",
      "type": "function"
    },
    {
      "inputs": [
        {
          "internalType": "uint256",
          "name": "_productId",
          "type": "uint256"
        },
        {
          "internalType": "uint8",
          "name": "_quantity",
          "type": "uint8"
        }
      ],
      "name": "purchaseProduct",
      "outputs": [],
      "stateMutability": "payable",
      "type": "function"
    },
    {
      "inputs": [
        {
          "internalType": "address",
          "name": "_seller",
          "type": "address"
        },
        {
          "internalType": "uint256",
          "name": "_rating",
          "type": "uint256"
        }
      ],
      "name": "rateSeller",
      "outputs": [],
      "stateMutability": "nonpayable",
      "type": "function"
    },
    {
      "inputs": [
        {
          "internalType": "uint256",
          "name": "_productId",
          "type": "uint256"
        }
      ],
      "name": "removeProduct",
      "outputs": [],
      "stateMutability": "nonpayable",
      "type": "function"
    },
    {
      "inputs": [],
      "name": "sellerCounter",
      "outputs": [
        {
          "internalType": "uint256",
          "name": "",
          "type": "uint256"
        }
      ],
      "stateMutability": "view",
      "type": "function"
    },
    {
      "inputs": [
        {
          "internalType": "address",
          "name": "",
          "type": "address"
        }
      ],
      "name": "sellers",
      "outputs": [
        {
          "internalType": "address",
          "name": "sellerAddress",
          "type": "address"
        },
        {
          "internalType": "uint256",
          "name": "totalRating",
          "type": "uint256"
        },
        {
          "internalType": "uint256",
          "name": "ratingCount",
          "type": "uint256"
        }
      ],
      "stateMutability": "view",
      "type": "function"
    },
    {
      "inputs": [
        {
          "internalType": "uint256",
          "name": "",
          "type": "uint256"
        }
      ],
      "name": "transactions",
      "outputs": [
        {
          "internalType": "address",
          "name": "buyer",
          "type": "address"
        },
        {
          "internalType": "uint256",
          "name": "productId",
          "type": "uint256"
        },
        {
          "internalType": "uint256",
          "name": "quantity",
          "type": "uint256"
        },
        {
          "internalType": "uint256",
          "name": "timestamp",
          "type": "uint256"
        }
      ],
      "stateMutability": "view",
      "type": "function"
    },
    {
      "inputs": [
        {
          "internalType": "address",
          "name": "",
          "type": "address"
        },
        {
          "internalType": "uint256",
          "name": "",
          "type": "uint256"
        }
      ],
      "name": "transactionsByBuyer",
      "outputs": [
        {
          "internalType": "uint256",
          "name": "",
          "type": "uint256"
        }
      ],
      "stateMutability": "view",
      "type": "function"
    },
    {
      "inputs": [
        {
          "internalType": "uint256",
          "name": "_productId",
          "type": "uint256"
        },
        {
          "internalType": "string",
          "name": "_newName",
          "type": "string"
        },
        {
          "internalType": "string",
          "name": "_newDescription",
          "type": "string"
        },
        {
          "internalType": "uint256",
          "name": "_newPrice",
          "type": "uint256"
        },
        {
          "internalType": "uint256",
          "name": "_newStock",
          "type": "uint256"
        },
        {
          "internalType": "bool",
          "name": "_exists",
          "type": "bool"
        }
      ],
      "name": "updateProduct",
      "outputs": [],
      "stateMutability": "nonpayable",
      "type": "function"
    }
  ],
  "bytecode": "0x6080604052348015600f57600080fd5b506134888061001f6000396000f3fe6080604052600436106100fe5760003560e01c80635ee95cae116100955780638a5f6723116100645780638a5f6723146103405780639ace38c21461036b578063a5475c13146103ab578063b9db15b4146103e8578063c8b675221461042a576100fe565b80635ee95cae1461026c5780636d47ab7214610295578063742ab0d3146102d45780637acc0b20146102fd576100fe565b80632dc085cf116100d15780632dc085cf146101ad578063468232f7146101d657806355442bae146101f257806356d7f1d01461022f576100fe565b806301cecd141461010357806302ee3a521461012c5780631f16653b1461015757806327506f5314610182575b600080fd5b34801561010f57600080fd5b5061012a60048036038101906101259190612259565b610467565b005b34801561013857600080fd5b50610141610811565b60405161014e9190612547565b60405180910390f35b34801561016357600080fd5b5061016c610b88565b6040516101799190612578565b60405180910390f35b34801561018e57600080fd5b50610197610b8e565b6040516101a491906126b8565b60405180910390f35b3480156101b957600080fd5b506101d460048036038101906101cf9190612706565b610c61565b005b6101f060048036038101906101eb9190612804565b610e2b565b005b3480156101fe57600080fd5b5061021960048036038101906102149190612870565b61114f565b6040516102269190612547565b60405180910390f35b34801561023b57600080fd5b5061025660048036038101906102519190612870565b611556565b60405161026391906126b8565b60405180910390f35b34801561027857600080fd5b50610293600480360381019061028e919061289d565b6116fa565b005b3480156102a157600080fd5b506102bc60048036038101906102b79190612870565b611960565b6040516102cb939291906128d9565b60405180910390f35b3480156102e057600080fd5b506102fb60048036038101906102f69190612910565b6119aa565b005b34801561030957600080fd5b50610324600480360381019061031f919061289d565b611bbc565b60405161033797969594939291906129b8565b60405180910390f35b34801561034c57600080fd5b50610355611d3b565b6040516103629190612578565b60405180910390f35b34801561037757600080fd5b50610392600480360381019061038d919061289d565b611d41565b6040516103a29493929190612a35565b60405180910390f35b3480156103b757600080fd5b506103d260048036038101906103cd9190612910565b611da1565b6040516103df9190612578565b60405180910390f35b3480156103f457600080fd5b5061040f600480360381019061040a919061289d565b611dd2565b60405161042196959493929190612a7a565b60405180910390f35b34801561043657600080fd5b50610451600480360381019061044c9190612870565b611fbf565b60405161045e9190612578565b60405180910390f35b6000821180156104775750600081115b6104b6576040517f08c379a00000000000000000000000000000000000000000000000000000000081526004016104ad90612b5b565b60405180910390fd5b600073ffffffffffffffffffffffffffffffffffffffff16600660003373ffffffffffffffffffffffffffffffffffffffff1673ffffffffffffffffffffffffffffffffffffffff16815260200190815260200160002060000160009054906101000a900473ffffffffffffffffffffffffffffffffffffffff1673ffffffffffffffffffffffffffffffffffffffff16036106355760405180606001604052803373ffffffffffffffffffffffffffffffffffffffff168152602001600081526020016000815250600660003373ffffffffffffffffffffffffffffffffffffffff1673ffffffffffffffffffffffffffffffffffffffff16815260200190815260200160002060008201518160000160006101000a81548173ffffffffffffffffffffffffffffffffffffffff021916908373ffffffffffffffffffffffffffffffffffffffff16021790555060208201518160010155604082015181600201559050506001600081548092919061062f90612baa565b91905055505b60008081548092919061064790612baa565b91905055506040518060e0016040528060005481526020013373ffffffffffffffffffffffffffffffffffffffff1681526020018581526020018481526020018381526020018281526020016001151581525060036000805481526020019081526020016000206000820151816000015560208201518160010160006101000a81548173ffffffffffffffffffffffffffffffffffffffff021916908373ffffffffffffffffffffffffffffffffffffffff16021790555060408201518160020190816107149190612dfe565b50606082015181600301908161072a9190612dfe565b506080820151816004015560a0820151816005015560c08201518160060160006101000a81548160ff021916908315150217905550905050600560003373ffffffffffffffffffffffffffffffffffffffff1673ffffffffffffffffffffffffffffffffffffffff16815260200190815260200160002060005490806001815401808255809150506001900390600052602060002001600090919091909150557f9602ea61e5616caa15fba534e20c5a5ab159fff73d12aa24b852febf42c2fe1f60005485858585604051610803959493929190612ed0565b60405180910390a150505050565b6060600080600190505b600054811161086f576003600082815260200190815260200160002060060160009054906101000a900460ff161561085c57818061085890612baa565b9250505b808061086790612baa565b91505061081b565b50600081036108da5760008067ffffffffffffffff811115610894576108936120f8565b5b6040519080825280602002602001820160405280156108cd57816020015b6108ba612036565b8152602001906001900390816108b25790505b5090508092505050610b85565b60008167ffffffffffffffff8111156108f6576108f56120f8565b5b60405190808252806020026020018201604052801561092f57816020015b61091c612036565b8152602001906001900390816109145790505b509050600080600190505b6000548111610b7d576003600082815260200190815260200160002060060160009054906101000a900460ff1615610b6a57600360008281526020019081526020016000206040518060e0016040529081600082015481526020016001820160009054906101000a900473ffffffffffffffffffffffffffffffffffffffff1673ffffffffffffffffffffffffffffffffffffffff1673ffffffffffffffffffffffffffffffffffffffff1681526020016002820180546109fa90612c21565b80601f0160208091040260200160405190810160405280929190818152602001828054610a2690612c21565b8015610a735780601f10610a4857610100808354040283529160200191610a73565b820191906000526020600020905b815481529060010190602001808311610a5657829003601f168201915b50505050508152602001600382018054610a8c90612c21565b80601f0160208091040260200160405190810160405280929190818152602001828054610ab890612c21565b8015610b055780601f10610ada57610100808354040283529160200191610b05565b820191906000526020600020905b815481529060010190602001808311610ae857829003601f168201915b5050505050815260200160048201548152602001600582015481526020016006820160009054906101000a900460ff161515151581525050838381518110610b5057610b4f612f31565b5b60200260200101819052508180610b6690612baa565b9250505b8080610b7590612baa565b91505061093a565b508193505050505b90565b60005481565b60606002805480602002602001604051908101604052809291908181526020016000905b82821015610c5857838290600052602060002090600402016040518060800160405290816000820160009054906101000a900473ffffffffffffffffffffffffffffffffffffffff1673ffffffffffffffffffffffffffffffffffffffff1673ffffffffffffffffffffffffffffffffffffffff168152602001600182015481526020016002820154815260200160038201548152505081526020019060010190610bb2565b50505050905090565b853373ffffffffffffffffffffffffffffffffffffffff166003600083815260200190815260200160002060010160009054906101000a900473ffffffffffffffffffffffffffffffffffffffff1673ffffffffffffffffffffffffffffffffffffffff1614610d06576040517f08c379a0000000000000000000000000000000000000000000000000000000008152600401610cfd90612fac565b60405180910390fd5b6003600088815260200190815260200160002060060160009054906101000a900460ff16610d69576040517f08c379a0000000000000000000000000000000000000000000000000000000008152600401610d6090613018565b60405180910390fd5b600084118015610d795750600083115b610db8576040517f08c379a0000000000000000000000000000000000000000000000000000000008152600401610daf90613084565b60405180910390fd5b600060036000898152602001908152602001600020905084816004018190555086816002019081610de99190612dfe565b5085816003019081610dfb9190612dfe565b50838160050181905550828160060160006101000a81548160ff0219169083151502179055505050505050505050565b60008160ff16118015610e5e57506003600083815260200190815260200160002060060160009054906101000a900460ff165b8015610e80575060006003600084815260200190815260200160002060050154115b8015610ea557508060ff16600360008481526020019081526020016000206005015410155b610eae57600080fd5b60008160ff166003600085815260200190815260200160002060040154610ed591906130a4565b9050803414610f19576040517f08c379a0000000000000000000000000000000000000000000000000000000008152600401610f1090613158565b60405180910390fd5b8160ff16600360008581526020019081526020016000206005016000828254610f429190613178565b925050819055506003600084815260200190815260200160002060010160009054906101000a900473ffffffffffffffffffffffffffffffffffffffff1673ffffffffffffffffffffffffffffffffffffffff166108fc829081150290604051600060405180830381858888f19350505050158015610fc5573d6000803e3d6000fd5b50600060405180608001604052803373ffffffffffffffffffffffffffffffffffffffff1681526020018581526020018460ff168152602001428152509050600281908060018154018082558091505060019003906000526020600020906004020160009091909190915060008201518160000160006101000a81548173ffffffffffffffffffffffffffffffffffffffff021916908373ffffffffffffffffffffffffffffffffffffffff1602179055506020820151816001015560408201518160020155606082015181600301555050600460003373ffffffffffffffffffffffffffffffffffffffff1673ffffffffffffffffffffffffffffffffffffffff16815260200190815260200160002060016002805490506110e89190613178565b90806001815401808255809150506001900390600052602060002001600090919091909150557fa530f889d7f1bd9a73028e48944ca013ab2c6624a31e3fa26f923f4bb719abd5843385604051611141939291906131dd565b60405180910390a150505050565b60606000600560008473ffffffffffffffffffffffffffffffffffffffff1673ffffffffffffffffffffffffffffffffffffffff16815260200190815260200160002090506000805b828054905081101561120657600360008483815481106111bb576111ba612f31565b5b9060005260206000200154815260200190815260200160002060060160009054906101000a900460ff16156111f95781806111f590612baa565b9250505b8080600101915050611198565b50600081036112725760008067ffffffffffffffff81111561122b5761122a6120f8565b5b60405190808252806020026020018201604052801561126457816020015b611251612036565b8152602001906001900390816112495790505b509050809350505050611551565b60008167ffffffffffffffff81111561128e5761128d6120f8565b5b6040519080825280602002602001820160405280156112c757816020015b6112b4612036565b8152602001906001900390816112ac5790505b5090506000805b848054905081101561154857600360008683815481106112f1576112f0612f31565b5b9060005260206000200154815260200190815260200160002060060160009054906101000a900460ff161561153b576003600086838154811061133757611336612f31565b5b906000526020600020015481526020019081526020016000206040518060e0016040529081600082015481526020016001820160009054906101000a900473ffffffffffffffffffffffffffffffffffffffff1673ffffffffffffffffffffffffffffffffffffffff1673ffffffffffffffffffffffffffffffffffffffff1681526020016002820180546113cb90612c21565b80601f01602080910402602001604051908101604052809291908181526020018280546113f790612c21565b80156114445780601f1061141957610100808354040283529160200191611444565b820191906000526020600020905b81548152906001019060200180831161142757829003601f168201915b5050505050815260200160038201805461145d90612c21565b80601f016020809104026020016040519081016040528092919081815260200182805461148990612c21565b80156114d65780601f106114ab576101008083540402835291602001916114d6565b820191906000526020600020905b8154815290600101906020018083116114b957829003601f168201915b5050505050815260200160048201548152602001600582015481526020016006820160009054906101000a900460ff16151515158152505083838151811061152157611520612f31565b5b6020026020010181905250818061153790612baa565b9250505b80806001019150506112ce565b50819450505050505b919050565b60606000600460008473ffffffffffffffffffffffffffffffffffffffff1673ffffffffffffffffffffffffffffffffffffffff16815260200190815260200160002090506000818054905067ffffffffffffffff8111156115bb576115ba6120f8565b5b6040519080825280602002602001820160405280156115f457816020015b6115e161208b565b8152602001906001900390816115d95790505b50905060005b82805490508110156116ef57600283828154811061161b5761161a612f31565b5b90600052602060002001548154811061163757611636612f31565b5b90600052602060002090600402016040518060800160405290816000820160009054906101000a900473ffffffffffffffffffffffffffffffffffffffff1673ffffffffffffffffffffffffffffffffffffffff1673ffffffffffffffffffffffffffffffffffffffff16815260200160018201548152602001600282015481526020016003820154815250508282815181106116d7576116d6612f31565b5b602002602001018190525080806001019150506115fa565b508092505050919050565b803373ffffffffffffffffffffffffffffffffffffffff166003600083815260200190815260200160002060010160009054906101000a900473ffffffffffffffffffffffffffffffffffffffff1673ffffffffffffffffffffffffffffffffffffffff161461179f576040517f08c379a000000000000000000000000000000000000000000000000000000000815260040161179690612fac565b60405180910390fd5b60006003600084815260200190815260200160002090508060060160009054906101000a900460ff16611807576040517f08c379a00000000000000000000000000000000000000000000000000000000081526004016117fe90613260565b60405180910390fd5b60008160060160006101000a81548160ff0219169083151502179055506000600560003373ffffffffffffffffffffffffffffffffffffffff1673ffffffffffffffffffffffffffffffffffffffff168152602001908152602001600020905060005b8180549050811015611922578482828154811061188a57611889612f31565b5b9060005260206000200154036119155781600183805490506118ac9190613178565b815481106118bd576118bc612f31565b5b90600052602060002001548282815481106118db576118da612f31565b5b9060005260206000200181905550818054806118fa576118f9613280565b5b60019003818190600052602060002001600090559055611922565b808060010191505061186a565b507f07015631cff457b5b13492c2045e70c6305a0a4aa773e432e79abbe2cf52c1eb846040516119529190612578565b60405180910390a150505050565b60066020528060005260406000206000915090508060000160009054906101000a900473ffffffffffffffffffffffffffffffffffffffff16908060010154908060020154905083565b600181101580156119bc575060058111155b6119fb576040517f08c379a00000000000000000000000000000000000000000000000000000000081526004016119f2906132fb565b60405180910390fd5b600073ffffffffffffffffffffffffffffffffffffffff16600660008473ffffffffffffffffffffffffffffffffffffffff1673ffffffffffffffffffffffffffffffffffffffff16815260200190815260200160002060000160009054906101000a900473ffffffffffffffffffffffffffffffffffffffff1673ffffffffffffffffffffffffffffffffffffffff1603611acc576040517f08c379a0000000000000000000000000000000000000000000000000000000008152600401611ac390613367565b60405180910390fd5b80600660008473ffffffffffffffffffffffffffffffffffffffff1673ffffffffffffffffffffffffffffffffffffffff1681526020019081526020016000206001016000828254611b1e9190613387565b92505081905550600660008373ffffffffffffffffffffffffffffffffffffffff1673ffffffffffffffffffffffffffffffffffffffff1681526020019081526020016000206002016000815480929190611b7890612baa565b91905055507fd1e1a75de6d871246d9a51ee6f672019e38ac805a7adf094efce5b204ad2e84c828233604051611bb0939291906133bb565b60405180910390a15050565b60036020528060005260406000206000915090508060000154908060010160009054906101000a900473ffffffffffffffffffffffffffffffffffffffff1690806002018054611c0b90612c21565b80601f0160208091040260200160405190810160405280929190818152602001828054611c3790612c21565b8015611c845780601f10611c5957610100808354040283529160200191611c84565b820191906000526020600020905b815481529060010190602001808311611c6757829003601f168201915b505050505090806003018054611c9990612c21565b80601f0160208091040260200160405190810160405280929190818152602001828054611cc590612c21565b8015611d125780601f10611ce757610100808354040283529160200191611d12565b820191906000526020600020905b815481529060010190602001808311611cf557829003601f168201915b5050505050908060040154908060050154908060060160009054906101000a900460ff16905087565b60015481565b60028181548110611d5157600080fd5b90600052602060002090600402016000915090508060000160009054906101000a900473ffffffffffffffffffffffffffffffffffffffff16908060010154908060020154908060030154905084565b60046020528160005260406000208181548110611dbd57600080fd5b90600052602060002001600091509150505481565b6000806060806000806003600088815260200190815260200160002060060160009054906101000a900460ff16611e3e576040517f08c379a0000000000000000000000000000000000000000000000000000000008152600401611e3590613018565b60405180910390fd5b600060036000898152602001908152602001600020905080600001548160010160009054906101000a900473ffffffffffffffffffffffffffffffffffffffff16826002018360030184600401548560050154838054611e9d90612c21565b80601f0160208091040260200160405190810160405280929190818152602001828054611ec990612c21565b8015611f165780601f10611eeb57610100808354040283529160200191611f16565b820191906000526020600020905b815481529060010190602001808311611ef957829003601f168201915b50505050509350828054611f2990612c21565b80601f0160208091040260200160405190810160405280929190818152602001828054611f5590612c21565b8015611fa25780601f10611f7757610100808354040283529160200191611fa2565b820191906000526020600020905b815481529060010190602001808311611f8557829003601f168201915b505050505092509650965096509650965096505091939550919395565b600080600660008473ffffffffffffffffffffffffffffffffffffffff1673ffffffffffffffffffffffffffffffffffffffff16815260200190815260200160002090506000816002015403612019576000915050612031565b8060020154816001015461202d9190613421565b9150505b919050565b6040518060e0016040528060008152602001600073ffffffffffffffffffffffffffffffffffffffff168152602001606081526020016060815260200160008152602001600081526020016000151581525090565b6040518060800160405280600073ffffffffffffffffffffffffffffffffffffffff1681526020016000815260200160008152602001600081525090565b6000604051905090565b600080fd5b600080fd5b600080fd5b600080fd5b6000601f19601f8301169050919050565b7f4e487b7100000000000000000000000000000000000000000000000000000000600052604160045260246000fd5b612130826120e7565b810181811067ffffffffffffffff8211171561214f5761214e6120f8565b5b80604052505050565b60006121626120c9565b905061216e8282612127565b919050565b600067ffffffffffffffff82111561218e5761218d6120f8565b5b612197826120e7565b9050602081019050919050565b82818337600083830152505050565b60006121c66121c184612173565b612158565b9050828152602081018484840111156121e2576121e16120e2565b5b6121ed8482856121a4565b509392505050565b600082601f83011261220a576122096120dd565b5b813561221a8482602086016121b3565b91505092915050565b6000819050919050565b61223681612223565b811461224157600080fd5b50565b6000813590506122538161222d565b92915050565b60008060008060808587031215612273576122726120d3565b5b600085013567ffffffffffffffff811115612291576122906120d8565b5b61229d878288016121f5565b945050602085013567ffffffffffffffff8111156122be576122bd6120d8565b5b6122ca878288016121f5565b93505060406122db87828801612244565b92505060606122ec87828801612244565b91505092959194509250565b600081519050919050565b600082825260208201905092915050565b6000819050602082019050919050565b61232d81612223565b82525050565b600073ffffffffffffffffffffffffffffffffffffffff82169050919050565b600061235e82612333565b9050919050565b61236e81612353565b82525050565b600081519050919050565b600082825260208201905092915050565b60005b838110156123ae578082015181840152602081019050612393565b60008484015250505050565b60006123c582612374565b6123cf818561237f565b93506123df818560208601612390565b6123e8816120e7565b840191505092915050565b60008115159050919050565b612408816123f3565b82525050565b600060e0830160008301516124266000860182612324565b5060208301516124396020860182612365565b506040830151848203604086015261245182826123ba565b9150506060830151848203606086015261246b82826123ba565b91505060808301516124806080860182612324565b5060a083015161249360a0860182612324565b5060c08301516124a660c08601826123ff565b508091505092915050565b60006124bd838361240e565b905092915050565b6000602082019050919050565b60006124dd826122f8565b6124e78185612303565b9350836020820285016124f985612314565b8060005b85811015612535578484038952815161251685826124b1565b9450612521836124c5565b925060208a019950506001810190506124fd565b50829750879550505050505092915050565b6000602082019050818103600083015261256181846124d2565b905092915050565b61257281612223565b82525050565b600060208201905061258d6000830184612569565b92915050565b600081519050919050565b600082825260208201905092915050565b6000819050602082019050919050565b60006125ca82612333565b9050919050565b6125da816125bf565b82525050565b6080820160008201516125f660008501826125d1565b5060208201516126096020850182612324565b50604082015161261c6040850182612324565b50606082015161262f6060850182612324565b50505050565b600061264183836125e0565b60808301905092915050565b6000602082019050919050565b600061266582612593565b61266f818561259e565b935061267a836125af565b8060005b838110156126ab5781516126928882612635565b975061269d8361264d565b92505060018101905061267e565b5085935050505092915050565b600060208201905081810360008301526126d2818461265a565b905092915050565b6126e3816123f3565b81146126ee57600080fd5b50565b600081359050612700816126da565b92915050565b60008060008060008060c08789031215612723576127226120d3565b5b600061273189828a01612244565b965050602087013567ffffffffffffffff811115612752576127516120d8565b5b61275e89828a016121f5565b955050604087013567ffffffffffffffff81111561277f5761277e6120d8565b5b61278b89828a016121f5565b945050606061279c89828a01612244565b93505060806127ad89828a01612244565b92505060a06127be89828a016126f1565b9150509295509295509295565b600060ff82169050919050565b6127e1816127cb565b81146127ec57600080fd5b50565b6000813590506127fe816127d8565b92915050565b6000806040838503121561281b5761281a6120d3565b5b600061282985828601612244565b925050602061283a858286016127ef565b9150509250929050565b61284d816125bf565b811461285857600080fd5b50565b60008135905061286a81612844565b92915050565b600060208284031215612886576128856120d3565b5b60006128948482850161285b565b91505092915050565b6000602082840312156128b3576128b26120d3565b5b60006128c184828501612244565b91505092915050565b6128d3816125bf565b82525050565b60006060820190506128ee60008301866128ca565b6128fb6020830185612569565b6129086040830184612569565b949350505050565b60008060408385031215612927576129266120d3565b5b60006129358582860161285b565b925050602061294685828601612244565b9150509250929050565b61295981612353565b82525050565b600082825260208201905092915050565b600061297b82612374565b612985818561295f565b9350612995818560208601612390565b61299e816120e7565b840191505092915050565b6129b2816123f3565b82525050565b600060e0820190506129cd600083018a612569565b6129da6020830189612950565b81810360408301526129ec8188612970565b90508181036060830152612a008187612970565b9050612a0f6080830186612569565b612a1c60a0830185612569565b612a2960c08301846129a9565b98975050505050505050565b6000608082019050612a4a60008301876128ca565b612a576020830186612569565b612a646040830185612569565b612a716060830184612569565b95945050505050565b600060c082019050612a8f6000830189612569565b612a9c60208301886128ca565b8181036040830152612aae8187612970565b90508181036060830152612ac28186612970565b9050612ad16080830185612569565b612ade60a0830184612569565b979650505050505050565b7f507269636520616e642073746f636b206d75737420626520706f73697469766560008201527f2e00000000000000000000000000000000000000000000000000000000000000602082015250565b6000612b4560218361295f565b9150612b5082612ae9565b604082019050919050565b60006020820190508181036000830152612b7481612b38565b9050919050565b7f4e487b7100000000000000000000000000000000000000000000000000000000600052601160045260246000fd5b6000612bb582612223565b91507fffffffffffffffffffffffffffffffffffffffffffffffffffffffffffffffff8203612be757612be6612b7b565b5b600182019050919050565b7f4e487b7100000000000000000000000000000000000000000000000000000000600052602260045260246000fd5b60006002820490506001821680612c3957607f821691505b602082108103612c4c57612c4b612bf2565b5b50919050565b60008190508160005260206000209050919050565b60006020601f8301049050919050565b600082821b905092915050565b600060088302612cb47fffffffffffffffffffffffffffffffffffffffffffffffffffffffffffffffff82612c77565b612cbe8683612c77565b95508019841693508086168417925050509392505050565b6000819050919050565b6000612cfb612cf6612cf184612223565b612cd6565b612223565b9050919050565b6000819050919050565b612d1583612ce0565b612d29612d2182612d02565b848454612c84565b825550505050565b600090565b612d3e612d31565b612d49818484612d0c565b505050565b5b81811015612d6d57612d62600082612d36565b600181019050612d4f565b5050565b601f821115612db257612d8381612c52565b612d8c84612c67565b81016020851015612d9b578190505b612daf612da785612c67565b830182612d4e565b50505b505050565b600082821c905092915050565b6000612dd560001984600802612db7565b1980831691505092915050565b6000612dee8383612dc4565b9150826002028217905092915050565b612e0782612374565b67ffffffffffffffff811115612e2057612e1f6120f8565b5b612e2a8254612c21565b612e35828285612d71565b600060209050601f831160018114612e685760008415612e56578287015190505b612e608582612de2565b865550612ec8565b601f198416612e7686612c52565b60005b82811015612e9e57848901518255600182019150602085019450602081019050612e79565b86831015612ebb5784890151612eb7601f891682612dc4565b8355505b6001600288020188555050505b505050505050565b600060a082019050612ee56000830188612569565b8181036020830152612ef78187612970565b90508181036040830152612f0b8186612970565b9050612f1a6060830185612569565b612f276080830184612569565b9695505050505050565b7f4e487b7100000000000000000000000000000000000000000000000000000000600052603260045260246000fd5b7f4e6f74207468652070726f647563742073656c6c65722e000000000000000000600082015250565b6000612f9660178361295f565b9150612fa182612f60565b602082019050919050565b60006020820190508181036000830152612fc581612f89565b9050919050565b7f50726f6475637420646f65736e27742065786973740000000000000000000000600082015250565b600061300260158361295f565b915061300d82612fcc565b602082019050919050565b6000602082019050818103600083015261303181612ff5565b9050919050565b7f496e76616c69642070726f647563742064657461696c732e0000000000000000600082015250565b600061306e60188361295f565b915061307982613038565b602082019050919050565b6000602082019050818103600083015261309d81613061565b9050919050565b60006130af82612223565b91506130ba83612223565b92508282026130c881612223565b915082820484148315176130df576130de612b7b565b5b5092915050565b7f496e73756666696369656e74206f72206578636573732066756e64732070726f60008201527f7669646564000000000000000000000000000000000000000000000000000000602082015250565b600061314260258361295f565b915061314d826130e6565b604082019050919050565b6000602082019050818103600083015261317181613135565b9050919050565b600061318382612223565b915061318e83612223565b92508282039050818111156131a6576131a5612b7b565b5b92915050565b60006131c76131c26131bd846127cb565b612cd6565b612223565b9050919050565b6131d7816131ac565b82525050565b60006060820190506131f26000830186612569565b6131ff60208301856128ca565b61320c60408301846131ce565b949350505050565b7f50726f6475637420646f6573206e6f742065786973742e000000000000000000600082015250565b600061324a60178361295f565b915061325582613214565b602082019050919050565b600060208201905081810360008301526132798161323d565b9050919050565b7f4e487b7100000000000000000000000000000000000000000000000000000000600052603160045260246000fd5b7f526174696e67206d757374206265206265747765656e203120616e6420352e00600082015250565b60006132e5601f8361295f565b91506132f0826132af565b602082019050919050565b60006020820190508181036000830152613314816132d8565b9050919050565b7f53656c6c657220646f6573206e6f742065786973742e00000000000000000000600082015250565b600061335160168361295f565b915061335c8261331b565b602082019050919050565b6000602082019050818103600083015261338081613344565b9050919050565b600061339282612223565b915061339d83612223565b92508282019050808211156133b5576133b4612b7b565b5b92915050565b60006060820190506133d060008301866128ca565b6133dd6020830185612569565b6133ea60408301846128ca565b949350505050565b7f4e487b7100000000000000000000000000000000000000000000000000000000600052601260045260246000fd5b600061342c82612223565b915061343783612223565b925082613447576134466133f2565b5b82820490509291505056fea26469706673582212204dc967a88274511ac145b03214ac7df0d9fb1edaecce5aaf46d920d317688a6e64736f6c634300081c0033",
  "linkReferences": {},
  "deployedLinkReferences": {}
}