{
  "_format": "hh-sol-artifact-1",
  "contractName": "Marketplace",
  "sourceName": "contracts/FruitMarketplace.sol",
  "abi": [
    {
      "anonymous": false,
      "inputs": [
        {
          "indexed": false,
          "internalType": "uint256",
          "name": "productId",
          "type": "uint256"
        },
        {
          "indexed": false,
          "internalType": "string",
          "name": "name",
          "type": "string"
        },
        {
          "indexed": false,
          "internalType": "string",
          "name": "description",
          "type": "string"
        },
        {
          "indexed": false,
          "internalType": "uint256",
          "name": "price",
          "type": "uint256"
        },
        {
          "indexed": false,
          "internalType": "uint256",
          "name": "stock",
          "type": "uint256"
        }
      ],
      "name": "ProductAdded",
      "type": "event"
    },
    {
      "anonymous": false,
      "inputs": [
        {
          "indexed": false,
          "internalType": "uint256",
          "name": "productId",
          "type": "uint256"
        },
        {
          "indexed": false,
          "internalType": "address",
          "name": "buyer",
          "type": "address"
        },
        {
          "indexed": false,
          "internalType": "address",
          "name": "seller",
          "type": "address"
        },
        {
          "indexed": false,
          "internalType": "uint256",
          "name": "stock",
          "type": "uint256"
        }
      ],
      "name": "ProductPurchased",
      "type": "event"
    },
    {
      "anonymous": false,
      "inputs": [
        {
          "indexed": false,
          "internalType": "uint256",
          "name": "productId",
          "type": "uint256"
        }
      ],
      "name": "ProductRemoved",
      "type": "event"
    },
    {
      "anonymous": false,
      "inputs": [
        {
          "indexed": false,
          "internalType": "address",
          "name": "seller",
          "type": "address"
        },
        {
          "indexed": false,
          "internalType": "uint256",
          "name": "rating",
          "type": "uint256"
        },
        {
          "indexed": false,
          "internalType": "address",
          "name": "buyer",
          "type": "address"
        }
      ],
      "name": "SellerRated",
      "type": "event"
    },
    {
      "inputs": [
        {
          "internalType": "string",
          "name": "_name",
          "type": "string"
        },
        {
          "internalType": "string",
          "name": "_description",
          "type": "string"
        },
        {
          "internalType": "uint256",
          "name": "_price",
          "type": "uint256"
        },
        {
          "internalType": "uint256",
          "name": "_stock",
          "type": "uint256"
        }
      ],
      "name": "addProduct",
      "outputs": [],
      "stateMutability": "nonpayable",
      "type": "function"
    },
    {
      "inputs": [],
      "name": "getAllProducts",
      "outputs": [
        {
          "components": [
            {
              "internalType": "uint256",
              "name": "id",
              "type": "uint256"
            },
            {
              "internalType": "address payable",
              "name": "seller",
              "type": "address"
            },
            {
              "internalType": "string",
              "name": "name",
              "type": "string"
            },
            {
              "internalType": "string",
              "name": "description",
              "type": "string"
            },
            {
              "internalType": "uint256",
              "name": "price",
              "type": "uint256"
            },
            {
              "internalType": "uint256",
              "name": "stock",
              "type": "uint256"
            },
            {
              "internalType": "bool",
              "name": "exists",
              "type": "bool"
            }
          ],
          "internalType": "struct Marketplace.Product[]",
          "name": "",
          "type": "tuple[]"
        }
      ],
      "stateMutability": "view",
      "type": "function"
    },
    {
      "inputs": [
        {
          "internalType": "address",
          "name": "owner",
          "type": "address"
        }
      ],
      "name": "getAllProductsByOwner",
      "outputs": [
        {
          "components": [
            {
              "internalType": "uint256",
              "name": "id",
              "type": "uint256"
            },
            {
              "internalType": "address payable",
              "name": "seller",
              "type": "address"
            },
            {
              "internalType": "string",
              "name": "name",
              "type": "string"
            },
            {
              "internalType": "string",
              "name": "description",
              "type": "string"
            },
            {
              "internalType": "uint256",
              "name": "price",
              "type": "uint256"
            },
            {
              "internalType": "uint256",
              "name": "stock",
              "type": "uint256"
            },
            {
              "internalType": "bool",
              "name": "exists",
              "type": "bool"
            }
          ],
          "internalType": "struct Marketplace.Product[]",
          "name": "",
          "type": "tuple[]"
        }
      ],
      "stateMutability": "view",
      "type": "function"
    },
    {
      "inputs": [],
      "name": "getAllTransactions",
      "outputs": [
        {
          "components": [
            {
              "internalType": "address",
              "name": "buyer",
              "type": "address"
            },
            {
              "internalType": "uint256",
              "name": "productId",
              "type": "uint256"
            },
            {
              "internalType": "uint256",
              "name": "quantity",
              "type": "uint256"
            },
            {
              "internalType": "uint256",
              "name": "timestamp",
              "type": "uint256"
            }
          ],
          "internalType": "struct Marketplace.Transaction[]",
          "name": "",
          "type": "tuple[]"
        }
      ],
      "stateMutability": "view",
      "type": "function"
    },
    {
      "inputs": [
        {
          "internalType": "address",
          "name": "_seller",
          "type": "address"
        }
      ],
      "name": "getAverageRating",
      "outputs": [
        {
          "internalType": "uint256",
          "name": "",
          "type": "uint256"
        }
      ],
      "stateMutability": "view",
      "type": "function"
    },
    {
      "inputs": [
        {
          "internalType": "uint256",
          "name": "_productId",
          "type": "uint256"
        }
      ],
      "name": "getProduct",
      "outputs": [
        {
          "internalType": "uint256",
          "name": "id",
          "type": "uint256"
        },
        {
          "internalType": "address",
          "name": "seller",
          "type": "address"
        },
        {
          "internalType": "string",
          "name": "name",
          "type": "string"
        },
        {
          "internalType": "string",
          "name": "description",
          "type": "string"
        },
        {
          "internalType": "uint256",
          "name": "price",
          "type": "uint256"
        },
        {
          "internalType": "uint256",
          "name": "stock",
          "type": "uint256"
        }
      ],
      "stateMutability": "view",
      "type": "function"
    },
    {
      "inputs": [
        {
          "internalType": "address",
          "name": "_buyer",
          "type": "address"
        }
      ],
      "name": "getTransactionsByBuyer",
      "outputs": [
        {
          "components": [
            {
              "internalType": "address",
              "name": "buyer",
              "type": "address"
            },
            {
              "internalType": "uint256",
              "name": "productId",
              "type": "uint256"
            },
            {
              "internalType": "uint256",
              "name": "quantity",
              "type": "uint256"
            },
            {
              "internalType": "uint256",
              "name": "timestamp",
              "type": "uint256"
            }
          ],
          "internalType": "struct Marketplace.Transaction[]",
          "name": "",
          "type": "tuple[]"
        }
      ],
      "stateMutability": "view",
      "type": "function"
    },
    {
      "inputs": [],
      "name": "productCounter",
      "outputs": [
        {
          "internalType": "uint256",
          "name": "",
          "type": "uint256"
        }
      ],
      "stateMutability": "view",
      "type": "function"
    },
    {
      "inputs": [
        {
          "internalType": "uint256",
          "name": "",
          "type": "uint256"
        }
      ],
      "name": "products",
      "outputs": [
        {
          "internalType": "uint256",
          "name": "id",
          "type": "uint256"
        },
        {
          "internalType": "address payable",
          "name": "seller",
          "type": "address"
        },
        {
          "internalType": "string",
          "name": "name",
          "type": "string"
        },
        {
          "internalType": "string",
          "name": "description",
          "type": "string"
        },
        {
          "internalType": "uint256",
          "name": "price",
          "type": "uint256"
        },
        {
          "internalType": "uint256",
          "name": "stock",
          "type": "uint256"
        },
        {
          "internalType": "bool",
          "name": "exists",
          "type": "bool"
        }
      ],
      "stateMutability": "view",
      "type": "function"
    },
    {
      "inputs": [
        {
          "internalType": "uint256[]",
          "name": "productIds",
          "type": "uint256[]"
        },
        {
          "internalType": "uint256[]",
          "name": "quantities",
          "type": "uint256[]"
        }
      ],
      "name": "purchaseMultipleProducts",
      "outputs": [],
      "stateMutability": "payable",
      "type": "function"
    },
    {
      "inputs": [
        {
          "internalType": "uint256",
          "name": "_productId",
          "type": "uint256"
        },
        {
          "internalType": "uint8",
          "name": "_quantity",
          "type": "uint8"
        }
      ],
      "name": "purchaseProduct",
      "outputs": [],
      "stateMutability": "payable",
      "type": "function"
    },
    {
      "inputs": [
        {
          "internalType": "address",
          "name": "_seller",
          "type": "address"
        },
        {
          "internalType": "uint256",
          "name": "_rating",
          "type": "uint256"
        }
      ],
      "name": "rateSeller",
      "outputs": [],
      "stateMutability": "nonpayable",
      "type": "function"
    },
    {
      "inputs": [
        {
          "internalType": "uint256",
          "name": "_productId",
          "type": "uint256"
        }
      ],
      "name": "removeProduct",
      "outputs": [],
      "stateMutability": "nonpayable",
      "type": "function"
    },
    {
      "inputs": [],
      "name": "sellerCounter",
      "outputs": [
        {
          "internalType": "uint256",
          "name": "",
          "type": "uint256"
        }
      ],
      "stateMutability": "view",
      "type": "function"
    },
    {
      "inputs": [
        {
          "internalType": "address",
          "name": "",
          "type": "address"
        }
      ],
      "name": "sellers",
      "outputs": [
        {
          "internalType": "address",
          "name": "sellerAddress",
          "type": "address"
        },
        {
          "internalType": "uint256",
          "name": "totalRating",
          "type": "uint256"
        },
        {
          "internalType": "uint256",
          "name": "ratingCount",
          "type": "uint256"
        }
      ],
      "stateMutability": "view",
      "type": "function"
    },
    {
      "inputs": [
        {
          "internalType": "uint256",
          "name": "",
          "type": "uint256"
        }
      ],
      "name": "transactions",
      "outputs": [
        {
          "internalType": "address",
          "name": "buyer",
          "type": "address"
        },
        {
          "internalType": "uint256",
          "name": "productId",
          "type": "uint256"
        },
        {
          "internalType": "uint256",
          "name": "quantity",
          "type": "uint256"
        },
        {
          "internalType": "uint256",
          "name": "timestamp",
          "type": "uint256"
        }
      ],
      "stateMutability": "view",
      "type": "function"
    },
    {
      "inputs": [
        {
          "internalType": "address",
          "name": "",
          "type": "address"
        },
        {
          "internalType": "uint256",
          "name": "",
          "type": "uint256"
        }
      ],
      "name": "transactionsByBuyer",
      "outputs": [
        {
          "internalType": "uint256",
          "name": "",
          "type": "uint256"
        }
      ],
      "stateMutability": "view",
      "type": "function"
    },
    {
      "inputs": [
        {
          "internalType": "uint256",
          "name": "_productId",
          "type": "uint256"
        },
        {
          "internalType": "string",
          "name": "_newName",
          "type": "string"
        },
        {
          "internalType": "string",
          "name": "_newDescription",
          "type": "string"
        },
        {
          "internalType": "uint256",
          "name": "_newPrice",
          "type": "uint256"
        },
        {
          "internalType": "uint256",
          "name": "_newStock",
          "type": "uint256"
        },
        {
          "internalType": "bool",
          "name": "_exists",
          "type": "bool"
        }
      ],
      "name": "updateProduct",
      "outputs": [],
      "stateMutability": "nonpayable",
      "type": "function"
    }
  ],
  "bytecode": "0x6080604052348015600f57600080fd5b506148c68061001f6000396000f3fe6080604052600436106101095760003560e01c80636d47ab72116100955780639ace38c2116100645780639ace38c214610376578063a5475c13146103b6578063b21537c3146103f3578063b9db15b41461040f578063c8b675221461045157610109565b80636d47ab72146102a0578063742ab0d3146102df5780637acc0b20146103085780638a5f67231461034b57610109565b80632dc085cf116100dc5780632dc085cf146101b8578063468232f7146101e157806355442bae146101fd57806356d7f1d01461023a5780635ee95cae1461027757610109565b806301cecd141461010e57806302ee3a52146101375780631f16653b1461016257806327506f531461018d575b600080fd5b34801561011a57600080fd5b50610135600480360381019061013091906130fc565b61048e565b005b34801561014357600080fd5b5061014c6108bc565b60405161015991906133ea565b60405180910390f35b34801561016e57600080fd5b50610177610c33565b604051610184919061341b565b60405180910390f35b34801561019957600080fd5b506101a2610c39565b6040516101af919061355b565b60405180910390f35b3480156101c457600080fd5b506101df60048036038101906101da91906135a9565b610d0c565b005b6101fb60048036038101906101f691906136a7565b610f5a565b005b34801561020957600080fd5b50610224600480360381019061021f9190613713565b6114cf565b60405161023191906133ea565b60405180910390f35b34801561024657600080fd5b50610261600480360381019061025c9190613713565b6118d6565b60405161026e919061355b565b60405180910390f35b34801561028357600080fd5b5061029e60048036038101906102999190613740565b611a7a565b005b3480156102ac57600080fd5b506102c760048036038101906102c29190613713565b611d76565b6040516102d69392919061377c565b60405180910390f35b3480156102eb57600080fd5b50610306600480360381019061030191906137b3565b611dc0565b005b34801561031457600080fd5b5061032f600480360381019061032a9190613740565b612054565b604051610342979695949392919061385b565b60405180910390f35b34801561035757600080fd5b506103606121d3565b60405161036d919061341b565b60405180910390f35b34801561038257600080fd5b5061039d60048036038101906103989190613740565b6121d9565b6040516103ad94939291906138d8565b60405180910390f35b3480156103c257600080fd5b506103dd60048036038101906103d891906137b3565b612239565b6040516103ea919061341b565b60405180910390f35b61040d6004803603810190610408919061397d565b61226a565b005b34801561041b57600080fd5b5061043660048036038101906104319190613740565b612c75565b604051610448969594939291906139fe565b60405180910390f35b34801561045d57600080fd5b5061047860048036038101906104739190613713565b612e62565b604051610485919061341b565b60405180910390f35b60008054906101000a900460ff16156104dc576040517f08c379a00000000000000000000000000000000000000000000000000000000081526004016104d390613ab9565b60405180910390fd5b60016000806101000a81548160ff0219169083151502179055506000821180156105065750600081115b610545576040517f08c379a000000000000000000000000000000000000000000000000000000000815260040161053c90613b4b565b60405180910390fd5b600073ffffffffffffffffffffffffffffffffffffffff16600760003373ffffffffffffffffffffffffffffffffffffffff1673ffffffffffffffffffffffffffffffffffffffff16815260200190815260200160002060000160009054906101000a900473ffffffffffffffffffffffffffffffffffffffff1673ffffffffffffffffffffffffffffffffffffffff16036106c45760405180606001604052803373ffffffffffffffffffffffffffffffffffffffff168152602001600081526020016000815250600760003373ffffffffffffffffffffffffffffffffffffffff1673ffffffffffffffffffffffffffffffffffffffff16815260200190815260200160002060008201518160000160006101000a81548173ffffffffffffffffffffffffffffffffffffffff021916908373ffffffffffffffffffffffffffffffffffffffff1602179055506020820151816001015560408201518160020155905050600260008154809291906106be90613b9a565b91905055505b600160008154809291906106d790613b9a565b91905055506040518060e0016040528060015481526020013373ffffffffffffffffffffffffffffffffffffffff168152602001858152602001848152602001838152602001828152602001600115158152506004600060015481526020019081526020016000206000820151816000015560208201518160010160006101000a81548173ffffffffffffffffffffffffffffffffffffffff021916908373ffffffffffffffffffffffffffffffffffffffff16021790555060408201518160020190816107a59190613dee565b5060608201518160030190816107bb9190613dee565b506080820151816004015560a0820151816005015560c08201518160060160006101000a81548160ff021916908315150217905550905050600660003373ffffffffffffffffffffffffffffffffffffffff1673ffffffffffffffffffffffffffffffffffffffff16815260200190815260200160002060015490806001815401808255809150506001900390600052602060002001600090919091909150557f9602ea61e5616caa15fba534e20c5a5ab159fff73d12aa24b852febf42c2fe1f60015485858585604051610894959493929190613ec0565b60405180910390a160008060006101000a81548160ff02191690831515021790555050505050565b6060600080600190505b600154811161091a576004600082815260200190815260200160002060060160009054906101000a900460ff161561090757818061090390613b9a565b9250505b808061091290613b9a565b9150506108c6565b50600081036109855760008067ffffffffffffffff81111561093f5761093e612f9b565b5b60405190808252806020026020018201604052801561097857816020015b610965612ed9565b81526020019060019003908161095d5790505b5090508092505050610c30565b60008167ffffffffffffffff8111156109a1576109a0612f9b565b5b6040519080825280602002602001820160405280156109da57816020015b6109c7612ed9565b8152602001906001900390816109bf5790505b509050600080600190505b6001548111610c28576004600082815260200190815260200160002060060160009054906101000a900460ff1615610c1557600460008281526020019081526020016000206040518060e0016040529081600082015481526020016001820160009054906101000a900473ffffffffffffffffffffffffffffffffffffffff1673ffffffffffffffffffffffffffffffffffffffff1673ffffffffffffffffffffffffffffffffffffffff168152602001600282018054610aa590613c11565b80601f0160208091040260200160405190810160405280929190818152602001828054610ad190613c11565b8015610b1e5780601f10610af357610100808354040283529160200191610b1e565b820191906000526020600020905b815481529060010190602001808311610b0157829003601f168201915b50505050508152602001600382018054610b3790613c11565b80601f0160208091040260200160405190810160405280929190818152602001828054610b6390613c11565b8015610bb05780601f10610b8557610100808354040283529160200191610bb0565b820191906000526020600020905b815481529060010190602001808311610b9357829003601f168201915b5050505050815260200160048201548152602001600582015481526020016006820160009054906101000a900460ff161515151581525050838381518110610bfb57610bfa613f21565b5b60200260200101819052508180610c1190613b9a565b9250505b8080610c2090613b9a565b9150506109e5565b508193505050505b90565b60015481565b60606003805480602002602001604051908101604052809291908181526020016000905b82821015610d0357838290600052602060002090600402016040518060800160405290816000820160009054906101000a900473ffffffffffffffffffffffffffffffffffffffff1673ffffffffffffffffffffffffffffffffffffffff1673ffffffffffffffffffffffffffffffffffffffff168152602001600182015481526020016002820154815260200160038201548152505081526020019060010190610c5d565b50505050905090565b60008054906101000a900460ff1615610d5a576040517f08c379a0000000000000000000000000000000000000000000000000000000008152600401610d5190613ab9565b60405180910390fd5b60016000806101000a81548160ff021916908315150217905550853373ffffffffffffffffffffffffffffffffffffffff166004600083815260200190815260200160002060010160009054906101000a900473ffffffffffffffffffffffffffffffffffffffff1673ffffffffffffffffffffffffffffffffffffffff1614610e19576040517f08c379a0000000000000000000000000000000000000000000000000000000008152600401610e1090613f9c565b60405180910390fd5b866004600082815260200190815260200160002060060160009054906101000a900460ff16610e7d576040517f08c379a0000000000000000000000000000000000000000000000000000000008152600401610e7490614008565b60405180910390fd5b600085118015610e8d5750600084115b610ecc576040517f08c379a0000000000000000000000000000000000000000000000000000000008152600401610ec390614074565b60405180910390fd5b6000600460008a8152602001908152602001600020905087816002019081610ef49190613dee565b5086816003019081610f069190613dee565b50858160040181905550848160050181905550838160060160006101000a81548160ff02191690831515021790555050505060008060006101000a81548160ff021916908315150217905550505050505050565b60008054906101000a900460ff1615610fa8576040517f08c379a0000000000000000000000000000000000000000000000000000000008152600401610f9f90613ab9565b60405180910390fd5b60016000806101000a81548160ff021916908315150217905550816004600082815260200190815260200160002060060160009054906101000a900460ff16611026576040517f08c379a000000000000000000000000000000000000000000000000000000000815260040161101d90614008565b60405180910390fd5b60008260ff1611801561104f575060006004600085815260200190815260200160002060050154115b801561107457508160ff16600460008581526020019081526020016000206005015410155b6110b3576040517f08c379a00000000000000000000000000000000000000000000000000000000081526004016110aa90614106565b60405180910390fd5b60008260ff1660046000868152602001908152602001600020600401546110da9190614126565b90508034101561111f576040517f08c379a0000000000000000000000000000000000000000000000000000000008152600401611116906141b4565b60405180910390fd5b8260ff1660046000868152602001908152602001600020600501600082825461114891906141d4565b9250508190555060006004600086815260200190815260200160002060010160009054906101000a900473ffffffffffffffffffffffffffffffffffffffff1673ffffffffffffffffffffffffffffffffffffffff16826040516111ab90614239565b60006040518083038185875af1925050503d80600081146111e8576040519150601f19603f3d011682016040523d82523d6000602084013e6111ed565b606091505b5050905080611231576040517f08c379a00000000000000000000000000000000000000000000000000000000081526004016112289061429a565b60405180910390fd5b600060405180608001604052803373ffffffffffffffffffffffffffffffffffffffff1681526020018781526020018660ff168152602001428152509050600381908060018154018082558091505060019003906000526020600020906004020160009091909190915060008201518160000160006101000a81548173ffffffffffffffffffffffffffffffffffffffff021916908373ffffffffffffffffffffffffffffffffffffffff1602179055506020820151816001015560408201518160020155606082015181600301555050600560003373ffffffffffffffffffffffffffffffffffffffff1673ffffffffffffffffffffffffffffffffffffffff168152602001908152602001600020600160038054905061135391906141d4565b90806001815401808255809150506001900390600052602060002001600090919091909150557f89a8790373694cb8e6f5112d59a2e66f88c2be837274055780f8910dab3e695c8633600460008a815260200190815260200160002060010160009054906101000a900473ffffffffffffffffffffffffffffffffffffffff16886040516113e49493929190614340565b60405180910390a1823411156114ad5760003373ffffffffffffffffffffffffffffffffffffffff16843461141991906141d4565b60405161142590614239565b60006040518083038185875af1925050503d8060008114611462576040519150601f19603f3d011682016040523d82523d6000602084013e611467565b606091505b50509050806114ab576040517f08c379a00000000000000000000000000000000000000000000000000000000081526004016114a2906143d1565b60405180910390fd5b505b5050505060008060006101000a81548160ff0219169083151502179055505050565b60606000600660008473ffffffffffffffffffffffffffffffffffffffff1673ffffffffffffffffffffffffffffffffffffffff16815260200190815260200160002090506000805b8280549050811015611586576004600084838154811061153b5761153a613f21565b5b9060005260206000200154815260200190815260200160002060060160009054906101000a900460ff161561157957818061157590613b9a565b9250505b8080600101915050611518565b50600081036115f25760008067ffffffffffffffff8111156115ab576115aa612f9b565b5b6040519080825280602002602001820160405280156115e457816020015b6115d1612ed9565b8152602001906001900390816115c95790505b5090508093505050506118d1565b60008167ffffffffffffffff81111561160e5761160d612f9b565b5b60405190808252806020026020018201604052801561164757816020015b611634612ed9565b81526020019060019003908161162c5790505b5090506000805b84805490508110156118c8576004600086838154811061167157611670613f21565b5b9060005260206000200154815260200190815260200160002060060160009054906101000a900460ff16156118bb57600460008683815481106116b7576116b6613f21565b5b906000526020600020015481526020019081526020016000206040518060e0016040529081600082015481526020016001820160009054906101000a900473ffffffffffffffffffffffffffffffffffffffff1673ffffffffffffffffffffffffffffffffffffffff1673ffffffffffffffffffffffffffffffffffffffff16815260200160028201805461174b90613c11565b80601f016020809104026020016040519081016040528092919081815260200182805461177790613c11565b80156117c45780601f10611799576101008083540402835291602001916117c4565b820191906000526020600020905b8154815290600101906020018083116117a757829003601f168201915b505050505081526020016003820180546117dd90613c11565b80601f016020809104026020016040519081016040528092919081815260200182805461180990613c11565b80156118565780601f1061182b57610100808354040283529160200191611856565b820191906000526020600020905b81548152906001019060200180831161183957829003601f168201915b5050505050815260200160048201548152602001600582015481526020016006820160009054906101000a900460ff1615151515815250508383815181106118a1576118a0613f21565b5b602002602001018190525081806118b790613b9a565b9250505b808060010191505061164e565b50819450505050505b919050565b60606000600560008473ffffffffffffffffffffffffffffffffffffffff1673ffffffffffffffffffffffffffffffffffffffff16815260200190815260200160002090506000818054905067ffffffffffffffff81111561193b5761193a612f9b565b5b60405190808252806020026020018201604052801561197457816020015b611961612f2e565b8152602001906001900390816119595790505b50905060005b8280549050811015611a6f57600383828154811061199b5761199a613f21565b5b9060005260206000200154815481106119b7576119b6613f21565b5b90600052602060002090600402016040518060800160405290816000820160009054906101000a900473ffffffffffffffffffffffffffffffffffffffff1673ffffffffffffffffffffffffffffffffffffffff1673ffffffffffffffffffffffffffffffffffffffff1681526020016001820154815260200160028201548152602001600382015481525050828281518110611a5757611a56613f21565b5b6020026020010181905250808060010191505061197a565b508092505050919050565b60008054906101000a900460ff1615611ac8576040517f08c379a0000000000000000000000000000000000000000000000000000000008152600401611abf90613ab9565b60405180910390fd5b60016000806101000a81548160ff021916908315150217905550803373ffffffffffffffffffffffffffffffffffffffff166004600083815260200190815260200160002060010160009054906101000a900473ffffffffffffffffffffffffffffffffffffffff1673ffffffffffffffffffffffffffffffffffffffff1614611b87576040517f08c379a0000000000000000000000000000000000000000000000000000000008152600401611b7e90613f9c565b60405180910390fd5b816004600082815260200190815260200160002060060160009054906101000a900460ff16611beb576040517f08c379a0000000000000000000000000000000000000000000000000000000008152600401611be290614008565b60405180910390fd5b600060046000858152602001908152602001600020905060008160060160006101000a81548160ff0219169083151502179055506000600660003373ffffffffffffffffffffffffffffffffffffffff1673ffffffffffffffffffffffffffffffffffffffff168152602001908152602001600020905060005b8180549050811015611d1d5785828281548110611c8557611c84613f21565b5b906000526020600020015403611d10578160018380549050611ca791906141d4565b81548110611cb857611cb7613f21565b5b9060005260206000200154828281548110611cd657611cd5613f21565b5b906000526020600020018190555081805480611cf557611cf46143f1565b5b60019003818190600052602060002001600090559055611d1d565b8080600101915050611c65565b507f07015631cff457b5b13492c2045e70c6305a0a4aa773e432e79abbe2cf52c1eb85604051611d4d919061341b565b60405180910390a15050505060008060006101000a81548160ff02191690831515021790555050565b60076020528060005260406000206000915090508060000160009054906101000a900473ffffffffffffffffffffffffffffffffffffffff16908060010154908060020154905083565b60008054906101000a900460ff1615611e0e576040517f08c379a0000000000000000000000000000000000000000000000000000000008152600401611e0590613ab9565b60405180910390fd5b60016000806101000a81548160ff02191690831515021790555060018110158015611e3a575060058111155b611e79576040517f08c379a0000000000000000000000000000000000000000000000000000000008152600401611e709061446c565b60405180910390fd5b600073ffffffffffffffffffffffffffffffffffffffff16600760008473ffffffffffffffffffffffffffffffffffffffff1673ffffffffffffffffffffffffffffffffffffffff16815260200190815260200160002060000160009054906101000a900473ffffffffffffffffffffffffffffffffffffffff1673ffffffffffffffffffffffffffffffffffffffff1603611f4a576040517f08c379a0000000000000000000000000000000000000000000000000000000008152600401611f41906144d8565b60405180910390fd5b80600760008473ffffffffffffffffffffffffffffffffffffffff1673ffffffffffffffffffffffffffffffffffffffff1681526020019081526020016000206001016000828254611f9c91906144f8565b92505081905550600760008373ffffffffffffffffffffffffffffffffffffffff1673ffffffffffffffffffffffffffffffffffffffff1681526020019081526020016000206002016000815480929190611ff690613b9a565b91905055507fd1e1a75de6d871246d9a51ee6f672019e38ac805a7adf094efce5b204ad2e84c82823360405161202e9392919061452c565b60405180910390a160008060006101000a81548160ff0219169083151502179055505050565b60046020528060005260406000206000915090508060000154908060010160009054906101000a900473ffffffffffffffffffffffffffffffffffffffff16908060020180546120a390613c11565b80601f01602080910402602001604051908101604052809291908181526020018280546120cf90613c11565b801561211c5780601f106120f15761010080835404028352916020019161211c565b820191906000526020600020905b8154815290600101906020018083116120ff57829003601f168201915b50505050509080600301805461213190613c11565b80601f016020809104026020016040519081016040528092919081815260200182805461215d90613c11565b80156121aa5780601f1061217f576101008083540402835291602001916121aa565b820191906000526020600020905b81548152906001019060200180831161218d57829003601f168201915b5050505050908060040154908060050154908060060160009054906101000a900460ff16905087565b60025481565b600381815481106121e957600080fd5b90600052602060002090600402016000915090508060000160009054906101000a900473ffffffffffffffffffffffffffffffffffffffff16908060010154908060020154908060030154905084565b6005602052816000526040600020818154811061225557600080fd5b90600052602060002001600091509150505481565b60008054906101000a900460ff16156122b8576040517f08c379a00000000000000000000000000000000000000000000000000000000081526004016122af90613ab9565b60405180910390fd5b60016000806101000a81548160ff02191690831515021790555081819050848490501461231a576040517f08c379a0000000000000000000000000000000000000000000000000000000008152600401612311906145af565b60405180910390fd5b60008484905011612360576040517f08c379a00000000000000000000000000000000000000000000000000000000081526004016123579061461b565b60405180910390fd5b6000805b8585905081101561267457600086868381811061238457612383613f21565b5b90506020020135905060008585848181106123a2576123a1613f21565b5b90506020020135905060006004600084815260200190815260200160002090508060060160009054906101000a900460ff16612413576040517f08c379a000000000000000000000000000000000000000000000000000000000815260040161240a90614008565b60405180910390fd5b60008211612456576040517f08c379a000000000000000000000000000000000000000000000000000000000815260040161244d90614687565b60405180910390fd5b818160050154101561249d576040517f08c379a0000000000000000000000000000000000000000000000000000000008152600401612494906146f3565b60405180910390fd5b60008282600401546124af9190614126565b905080866124bd91906144f8565b9550600860008360010160009054906101000a900473ffffffffffffffffffffffffffffffffffffffff1673ffffffffffffffffffffffffffffffffffffffff1673ffffffffffffffffffffffffffffffffffffffff16815260200190815260200160002060010160009054906101000a900460ff16156125ba5780600860008460010160009054906101000a900473ffffffffffffffffffffffffffffffffffffffff1673ffffffffffffffffffffffffffffffffffffffff1673ffffffffffffffffffffffffffffffffffffffff16815260200190815260200160002060000160008282546125ae91906144f8565b92505081905550612663565b604051806040016040528082815260200160011515815250600860008460010160009054906101000a900473ffffffffffffffffffffffffffffffffffffffff1673ffffffffffffffffffffffffffffffffffffffff1673ffffffffffffffffffffffffffffffffffffffff1681526020019081526020016000206000820151816000015560208201518160010160006101000a81548160ff0219169083151502179055509050505b505050508080600101915050612364565b50803410156126b8576040517f08c379a00000000000000000000000000000000000000000000000000000000081526004016126af9061475f565b60405180910390fd5b60005b858590508110156128e55760008686838181106126db576126da613f21565b5b90506020020135905060008585848181106126f9576126f8613f21565b5b90506020020135905060006004600084815260200190815260200160002090508181600501600082825461272d91906141d4565b92505081905550600360405180608001604052803373ffffffffffffffffffffffffffffffffffffffff16815260200185815260200184815260200142815250908060018154018082558091505060019003906000526020600020906004020160009091909190915060008201518160000160006101000a81548173ffffffffffffffffffffffffffffffffffffffff021916908373ffffffffffffffffffffffffffffffffffffffff1602179055506020820151816001015560408201518160020155606082015181600301555050600560003373ffffffffffffffffffffffffffffffffffffffff1673ffffffffffffffffffffffffffffffffffffffff168152602001908152602001600020600160038054905061284e91906141d4565b90806001815401808255809150506001900390600052602060002001600090919091909150557f89a8790373694cb8e6f5112d59a2e66f88c2be837274055780f8910dab3e695c83338360010160009054906101000a900473ffffffffffffffffffffffffffffffffffffffff16856040516128cd949392919061477f565b60405180910390a150505080806001019150506126bb565b5060005b85859050811015612b925760006004600088888581811061290d5761290c613f21565b5b90506020020135815260200190815260200160002060010160009054906101000a900473ffffffffffffffffffffffffffffffffffffffff169050600860008273ffffffffffffffffffffffffffffffffffffffff1673ffffffffffffffffffffffffffffffffffffffff16815260200190815260200160002060010160009054906101000a900460ff1680156129e657506000600860008373ffffffffffffffffffffffffffffffffffffffff1673ffffffffffffffffffffffffffffffffffffffff16815260200190815260200160002060000154115b15612b84576000600860008373ffffffffffffffffffffffffffffffffffffffff1673ffffffffffffffffffffffffffffffffffffffff1681526020019081526020016000206000015490506000600860008473ffffffffffffffffffffffffffffffffffffffff1673ffffffffffffffffffffffffffffffffffffffff168152602001908152602001600020600001819055506000600860008473ffffffffffffffffffffffffffffffffffffffff1673ffffffffffffffffffffffffffffffffffffffff16815260200190815260200160002060010160006101000a81548160ff02191690831515021790555060008273ffffffffffffffffffffffffffffffffffffffff1682604051612afb90614239565b60006040518083038185875af1925050503d8060008114612b38576040519150601f19603f3d011682016040523d82523d6000602084013e612b3d565b606091505b5050905080612b81576040517f08c379a0000000000000000000000000000000000000000000000000000000008152600401612b7890614810565b60405180910390fd5b50505b5080806001019150506128e9565b5080341115612c545760003373ffffffffffffffffffffffffffffffffffffffff168234612bc091906141d4565b604051612bcc90614239565b60006040518083038185875af1925050503d8060008114612c09576040519150601f19603f3d011682016040523d82523d6000602084013e612c0e565b606091505b5050905080612c52576040517f08c379a0000000000000000000000000000000000000000000000000000000008152600401612c49906143d1565b60405180910390fd5b505b5060008060006101000a81548160ff02191690831515021790555050505050565b6000806060806000806004600088815260200190815260200160002060060160009054906101000a900460ff16612ce1576040517f08c379a0000000000000000000000000000000000000000000000000000000008152600401612cd890614008565b60405180910390fd5b600060046000898152602001908152602001600020905080600001548160010160009054906101000a900473ffffffffffffffffffffffffffffffffffffffff16826002018360030184600401548560050154838054612d4090613c11565b80601f0160208091040260200160405190810160405280929190818152602001828054612d6c90613c11565b8015612db95780601f10612d8e57610100808354040283529160200191612db9565b820191906000526020600020905b815481529060010190602001808311612d9c57829003601f168201915b50505050509350828054612dcc90613c11565b80601f0160208091040260200160405190810160405280929190818152602001828054612df890613c11565b8015612e455780601f10612e1a57610100808354040283529160200191612e45565b820191906000526020600020905b815481529060010190602001808311612e2857829003601f168201915b505050505092509650965096509650965096505091939550919395565b600080600760008473ffffffffffffffffffffffffffffffffffffffff1673ffffffffffffffffffffffffffffffffffffffff16815260200190815260200160002090506000816002015403612ebc576000915050612ed4565b80600201548160010154612ed0919061485f565b9150505b919050565b6040518060e0016040528060008152602001600073ffffffffffffffffffffffffffffffffffffffff168152602001606081526020016060815260200160008152602001600081526020016000151581525090565b6040518060800160405280600073ffffffffffffffffffffffffffffffffffffffff1681526020016000815260200160008152602001600081525090565b6000604051905090565b600080fd5b600080fd5b600080fd5b600080fd5b6000601f19601f8301169050919050565b7f4e487b7100000000000000000000000000000000000000000000000000000000600052604160045260246000fd5b612fd382612f8a565b810181811067ffffffffffffffff82111715612ff257612ff1612f9b565b5b80604052505050565b6000613005612f6c565b90506130118282612fca565b919050565b600067ffffffffffffffff82111561303157613030612f9b565b5b61303a82612f8a565b9050602081019050919050565b82818337600083830152505050565b600061306961306484613016565b612ffb565b90508281526020810184848401111561308557613084612f85565b5b613090848285613047565b509392505050565b600082601f8301126130ad576130ac612f80565b5b81356130bd848260208601613056565b91505092915050565b6000819050919050565b6130d9816130c6565b81146130e457600080fd5b50565b6000813590506130f6816130d0565b92915050565b6000806000806080858703121561311657613115612f76565b5b600085013567ffffffffffffffff81111561313457613133612f7b565b5b61314087828801613098565b945050602085013567ffffffffffffffff81111561316157613160612f7b565b5b61316d87828801613098565b935050604061317e878288016130e7565b925050606061318f878288016130e7565b91505092959194509250565b600081519050919050565b600082825260208201905092915050565b6000819050602082019050919050565b6131d0816130c6565b82525050565b600073ffffffffffffffffffffffffffffffffffffffff82169050919050565b6000613201826131d6565b9050919050565b613211816131f6565b82525050565b600081519050919050565b600082825260208201905092915050565b60005b83811015613251578082015181840152602081019050613236565b60008484015250505050565b600061326882613217565b6132728185613222565b9350613282818560208601613233565b61328b81612f8a565b840191505092915050565b60008115159050919050565b6132ab81613296565b82525050565b600060e0830160008301516132c960008601826131c7565b5060208301516132dc6020860182613208565b50604083015184820360408601526132f4828261325d565b9150506060830151848203606086015261330e828261325d565b915050608083015161332360808601826131c7565b5060a083015161333660a08601826131c7565b5060c083015161334960c08601826132a2565b508091505092915050565b600061336083836132b1565b905092915050565b6000602082019050919050565b60006133808261319b565b61338a81856131a6565b93508360208202850161339c856131b7565b8060005b858110156133d857848403895281516133b98582613354565b94506133c483613368565b925060208a019950506001810190506133a0565b50829750879550505050505092915050565b600060208201905081810360008301526134048184613375565b905092915050565b613415816130c6565b82525050565b6000602082019050613430600083018461340c565b92915050565b600081519050919050565b600082825260208201905092915050565b6000819050602082019050919050565b600061346d826131d6565b9050919050565b61347d81613462565b82525050565b6080820160008201516134996000850182613474565b5060208201516134ac60208501826131c7565b5060408201516134bf60408501826131c7565b5060608201516134d260608501826131c7565b50505050565b60006134e48383613483565b60808301905092915050565b6000602082019050919050565b600061350882613436565b6135128185613441565b935061351d83613452565b8060005b8381101561354e57815161353588826134d8565b9750613540836134f0565b925050600181019050613521565b5085935050505092915050565b6000602082019050818103600083015261357581846134fd565b905092915050565b61358681613296565b811461359157600080fd5b50565b6000813590506135a38161357d565b92915050565b60008060008060008060c087890312156135c6576135c5612f76565b5b60006135d489828a016130e7565b965050602087013567ffffffffffffffff8111156135f5576135f4612f7b565b5b61360189828a01613098565b955050604087013567ffffffffffffffff81111561362257613621612f7b565b5b61362e89828a01613098565b945050606061363f89828a016130e7565b935050608061365089828a016130e7565b92505060a061366189828a01613594565b9150509295509295509295565b600060ff82169050919050565b6136848161366e565b811461368f57600080fd5b50565b6000813590506136a18161367b565b92915050565b600080604083850312156136be576136bd612f76565b5b60006136cc858286016130e7565b92505060206136dd85828601613692565b9150509250929050565b6136f081613462565b81146136fb57600080fd5b50565b60008135905061370d816136e7565b92915050565b60006020828403121561372957613728612f76565b5b6000613737848285016136fe565b91505092915050565b60006020828403121561375657613755612f76565b5b6000613764848285016130e7565b91505092915050565b61377681613462565b82525050565b6000606082019050613791600083018661376d565b61379e602083018561340c565b6137ab604083018461340c565b949350505050565b600080604083850312156137ca576137c9612f76565b5b60006137d8858286016136fe565b92505060206137e9858286016130e7565b9150509250929050565b6137fc816131f6565b82525050565b600082825260208201905092915050565b600061381e82613217565b6138288185613802565b9350613838818560208601613233565b61384181612f8a565b840191505092915050565b61385581613296565b82525050565b600060e082019050613870600083018a61340c565b61387d60208301896137f3565b818103604083015261388f8188613813565b905081810360608301526138a38187613813565b90506138b2608083018661340c565b6138bf60a083018561340c565b6138cc60c083018461384c565b98975050505050505050565b60006080820190506138ed600083018761376d565b6138fa602083018661340c565b613907604083018561340c565b613914606083018461340c565b95945050505050565b600080fd5b600080fd5b60008083601f84011261393d5761393c612f80565b5b8235905067ffffffffffffffff81111561395a5761395961391d565b5b60208301915083602082028301111561397657613975613922565b5b9250929050565b6000806000806040858703121561399757613996612f76565b5b600085013567ffffffffffffffff8111156139b5576139b4612f7b565b5b6139c187828801613927565b9450945050602085013567ffffffffffffffff8111156139e4576139e3612f7b565b5b6139f087828801613927565b925092505092959194509250565b600060c082019050613a13600083018961340c565b613a20602083018861376d565b8181036040830152613a328187613813565b90508181036060830152613a468186613813565b9050613a55608083018561340c565b613a6260a083018461340c565b979650505050505050565b7f5265656e7472616e637920646574656374656400000000000000000000000000600082015250565b6000613aa3601383613802565b9150613aae82613a6d565b602082019050919050565b60006020820190508181036000830152613ad281613a96565b9050919050565b7f507269636520616e642073746f636b206d75737420626520706f73697469766560008201527f2e00000000000000000000000000000000000000000000000000000000000000602082015250565b6000613b35602183613802565b9150613b4082613ad9565b604082019050919050565b60006020820190508181036000830152613b6481613b28565b9050919050565b7f4e487b7100000000000000000000000000000000000000000000000000000000600052601160045260246000fd5b6000613ba5826130c6565b91507fffffffffffffffffffffffffffffffffffffffffffffffffffffffffffffffff8203613bd757613bd6613b6b565b5b600182019050919050565b7f4e487b7100000000000000000000000000000000000000000000000000000000600052602260045260246000fd5b60006002820490506001821680613c2957607f821691505b602082108103613c3c57613c3b613be2565b5b50919050565b60008190508160005260206000209050919050565b60006020601f8301049050919050565b600082821b905092915050565b600060088302613ca47fffffffffffffffffffffffffffffffffffffffffffffffffffffffffffffffff82613c67565b613cae8683613c67565b95508019841693508086168417925050509392505050565b6000819050919050565b6000613ceb613ce6613ce1846130c6565b613cc6565b6130c6565b9050919050565b6000819050919050565b613d0583613cd0565b613d19613d1182613cf2565b848454613c74565b825550505050565b600090565b613d2e613d21565b613d39818484613cfc565b505050565b5b81811015613d5d57613d52600082613d26565b600181019050613d3f565b5050565b601f821115613da257613d7381613c42565b613d7c84613c57565b81016020851015613d8b578190505b613d9f613d9785613c57565b830182613d3e565b50505b505050565b600082821c905092915050565b6000613dc560001984600802613da7565b1980831691505092915050565b6000613dde8383613db4565b9150826002028217905092915050565b613df782613217565b67ffffffffffffffff811115613e1057613e0f612f9b565b5b613e1a8254613c11565b613e25828285613d61565b600060209050601f831160018114613e585760008415613e46578287015190505b613e508582613dd2565b865550613eb8565b601f198416613e6686613c42565b60005b82811015613e8e57848901518255600182019150602085019450602081019050613e69565b86831015613eab5784890151613ea7601f891682613db4565b8355505b6001600288020188555050505b505050505050565b600060a082019050613ed5600083018861340c565b8181036020830152613ee78187613813565b90508181036040830152613efb8186613813565b9050613f0a606083018561340c565b613f17608083018461340c565b9695505050505050565b7f4e487b7100000000000000000000000000000000000000000000000000000000600052603260045260246000fd5b7f4e6f74207468652070726f647563742073656c6c65722e000000000000000000600082015250565b6000613f86601783613802565b9150613f9182613f50565b602082019050919050565b60006020820190508181036000830152613fb581613f79565b9050919050565b7f50726f6475637420646f65736e27742065786973740000000000000000000000600082015250565b6000613ff2601583613802565b9150613ffd82613fbc565b602082019050919050565b6000602082019050818103600083015261402181613fe5565b9050919050565b7f496e76616c69642070726f647563742064657461696c732e0000000000000000600082015250565b600061405e601883613802565b915061406982614028565b602082019050919050565b6000602082019050818103600083015261408d81614051565b9050919050565b7f496e76616c6964207175616e74697479206f7220696e73756666696369656e7460008201527f2073746f636b0000000000000000000000000000000000000000000000000000602082015250565b60006140f0602683613802565b91506140fb82614094565b604082019050919050565b6000602082019050818103600083015261411f816140e3565b9050919050565b6000614131826130c6565b915061413c836130c6565b925082820261414a816130c6565b9150828204841483151761416157614160613b6b565b5b5092915050565b7f496e73756666696369656e742066756e64732070726f76696465640000000000600082015250565b600061419e601b83613802565b91506141a982614168565b602082019050919050565b600060208201905081810360008301526141cd81614191565b9050919050565b60006141df826130c6565b91506141ea836130c6565b925082820390508181111561420257614201613b6b565b5b92915050565b600081905092915050565b50565b6000614223600083614208565b915061422e82614213565b600082019050919050565b600061424482614216565b9150819050919050565b7f4661696c656420746f2073656e642045544820746f2073656c6c657200000000600082015250565b6000614284601c83613802565b915061428f8261424e565b602082019050919050565b600060208201905081810360008301526142b381614277565b9050919050565b60006142d56142d06142cb846131d6565b613cc6565b6131d6565b9050919050565b60006142e7826142ba565b9050919050565b60006142f9826142dc565b9050919050565b614309816142ee565b82525050565b600061432a6143256143208461366e565b613cc6565b6130c6565b9050919050565b61433a8161430f565b82525050565b6000608082019050614355600083018761340c565b614362602083018661376d565b61436f6040830185614300565b61437c6060830184614331565b95945050505050565b7f526566756e64206661696c656400000000000000000000000000000000000000600082015250565b60006143bb600d83613802565b91506143c682614385565b602082019050919050565b600060208201905081810360008301526143ea816143ae565b9050919050565b7f4e487b7100000000000000000000000000000000000000000000000000000000600052603160045260246000fd5b7f526174696e67206d757374206265206265747765656e203120616e6420352e00600082015250565b6000614456601f83613802565b915061446182614420565b602082019050919050565b6000602082019050818103600083015261448581614449565b9050919050565b7f53656c6c657220646f6573206e6f742065786973742e00000000000000000000600082015250565b60006144c2601683613802565b91506144cd8261448c565b602082019050919050565b600060208201905081810360008301526144f1816144b5565b9050919050565b6000614503826130c6565b915061450e836130c6565b925082820190508082111561452657614525613b6b565b5b92915050565b6000606082019050614541600083018661376d565b61454e602083018561340c565b61455b604083018461376d565b949350505050565b7f4d69736d61746368656420617272617973000000000000000000000000000000600082015250565b6000614599601183613802565b91506145a482614563565b602082019050919050565b600060208201905081810360008301526145c88161458c565b9050919050565b7f4e6f2070726f6475637473207370656369666965640000000000000000000000600082015250565b6000614605601583613802565b9150614610826145cf565b602082019050919050565b60006020820190508181036000830152614634816145f8565b9050919050565b7f5175616e74697479206d75737420626520706f73697469766500000000000000600082015250565b6000614671601983613802565b915061467c8261463b565b602082019050919050565b600060208201905081810360008301526146a081614664565b9050919050565b7f496e73756666696369656e742073746f636b0000000000000000000000000000600082015250565b60006146dd601283613802565b91506146e8826146a7565b602082019050919050565b6000602082019050818103600083015261470c816146d0565b9050919050565b7f496e73756666696369656e74207061796d656e74000000000000000000000000600082015250565b6000614749601483613802565b915061475482614713565b602082019050919050565b600060208201905081810360008301526147788161473c565b9050919050565b6000608082019050614794600083018761340c565b6147a1602083018661376d565b6147ae6040830185614300565b6147bb606083018461340c565b95945050505050565b7f5061796d656e7420746f2073656c6c6572206661696c65640000000000000000600082015250565b60006147fa601883613802565b9150614805826147c4565b602082019050919050565b60006020820190508181036000830152614829816147ed565b9050919050565b7f4e487b7100000000000000000000000000000000000000000000000000000000600052601260045260246000fd5b600061486a826130c6565b9150614875836130c6565b92508261488557614884614830565b5b82820490509291505056fea2646970667358221220ebc70952107099d1dd4321e460dc56f5deaf18192b0ffd18a399bfa7d00828be64736f6c634300081c0033",
  "linkReferences": {},
  "deployedLinkReferences": {}
}