{
  "_format": "hh-sol-artifact-1",
  "contractName": "Marketplace",
  "sourceName": "contracts/FruitMarketplace.sol",
  "abi": [
    {
      "anonymous": false,
      "inputs": [
        {
          "indexed": false,
          "internalType": "uint256",
          "name": "productId",
          "type": "uint256"
        },
        {
          "indexed": false,
          "internalType": "string",
          "name": "name",
          "type": "string"
        },
        {
          "indexed": false,
          "internalType": "string",
          "name": "description",
          "type": "string"
        },
        {
          "indexed": false,
          "internalType": "uint256",
          "name": "price",
          "type": "uint256"
        },
        {
          "indexed": false,
          "internalType": "uint256",
          "name": "stock",
          "type": "uint256"
        }
      ],
      "name": "ProductAdded",
      "type": "event"
    },
    {
      "anonymous": false,
      "inputs": [
        {
          "indexed": false,
          "internalType": "uint256",
          "name": "productId",
          "type": "uint256"
        },
        {
          "indexed": false,
          "internalType": "address",
          "name": "buyer",
          "type": "address"
        },
        {
          "indexed": false,
          "internalType": "uint256",
          "name": "stock",
          "type": "uint256"
        }
      ],
      "name": "ProductPurchased",
      "type": "event"
    },
    {
      "anonymous": false,
      "inputs": [
        {
          "indexed": false,
          "internalType": "uint256",
          "name": "productId",
          "type": "uint256"
        }
      ],
      "name": "ProductRemoved",
      "type": "event"
    },
    {
      "anonymous": false,
      "inputs": [
        {
          "indexed": false,
          "internalType": "address",
          "name": "seller",
          "type": "address"
        },
        {
          "indexed": false,
          "internalType": "uint256",
          "name": "rating",
          "type": "uint256"
        },
        {
          "indexed": false,
          "internalType": "address",
          "name": "buyer",
          "type": "address"
        }
      ],
      "name": "SellerRated",
      "type": "event"
    },
    {
      "inputs": [
        {
          "internalType": "string",
          "name": "_name",
          "type": "string"
        },
        {
          "internalType": "string",
          "name": "_description",
          "type": "string"
        },
        {
          "internalType": "uint256",
          "name": "_price",
          "type": "uint256"
        },
        {
          "internalType": "uint256",
          "name": "_stock",
          "type": "uint256"
        }
      ],
      "name": "addProduct",
      "outputs": [],
      "stateMutability": "nonpayable",
      "type": "function"
    },
    {
      "inputs": [],
      "name": "getAllProducts",
      "outputs": [
        {
          "components": [
            {
              "internalType": "uint256",
              "name": "id",
              "type": "uint256"
            },
            {
              "internalType": "address payable",
              "name": "seller",
              "type": "address"
            },
            {
              "internalType": "string",
              "name": "name",
              "type": "string"
            },
            {
              "internalType": "string",
              "name": "description",
              "type": "string"
            },
            {
              "internalType": "uint256",
              "name": "price",
              "type": "uint256"
            },
            {
              "internalType": "uint256",
              "name": "stock",
              "type": "uint256"
            },
            {
              "internalType": "bool",
              "name": "exists",
              "type": "bool"
            }
          ],
          "internalType": "struct Marketplace.Product[]",
          "name": "",
          "type": "tuple[]"
        }
      ],
      "stateMutability": "view",
      "type": "function"
    },
    {
      "inputs": [
        {
          "internalType": "address",
          "name": "owner",
          "type": "address"
        }
      ],
      "name": "getAllProductsByOwner",
      "outputs": [
        {
          "components": [
            {
              "internalType": "uint256",
              "name": "id",
              "type": "uint256"
            },
            {
              "internalType": "address payable",
              "name": "seller",
              "type": "address"
            },
            {
              "internalType": "string",
              "name": "name",
              "type": "string"
            },
            {
              "internalType": "string",
              "name": "description",
              "type": "string"
            },
            {
              "internalType": "uint256",
              "name": "price",
              "type": "uint256"
            },
            {
              "internalType": "uint256",
              "name": "stock",
              "type": "uint256"
            },
            {
              "internalType": "bool",
              "name": "exists",
              "type": "bool"
            }
          ],
          "internalType": "struct Marketplace.Product[]",
          "name": "",
          "type": "tuple[]"
        }
      ],
      "stateMutability": "view",
      "type": "function"
    },
    {
      "inputs": [],
      "name": "getAllTransactions",
      "outputs": [
        {
          "components": [
            {
              "internalType": "address",
              "name": "buyer",
              "type": "address"
            },
            {
              "internalType": "uint256",
              "name": "productId",
              "type": "uint256"
            },
            {
              "internalType": "uint256",
              "name": "quantity",
              "type": "uint256"
            },
            {
              "internalType": "uint256",
              "name": "timestamp",
              "type": "uint256"
            }
          ],
          "internalType": "struct Marketplace.Transaction[]",
          "name": "",
          "type": "tuple[]"
        }
      ],
      "stateMutability": "view",
      "type": "function"
    },
    {
      "inputs": [
        {
          "internalType": "address",
          "name": "_seller",
          "type": "address"
        }
      ],
      "name": "getAverageRating",
      "outputs": [
        {
          "internalType": "uint256",
          "name": "",
          "type": "uint256"
        }
      ],
      "stateMutability": "view",
      "type": "function"
    },
    {
      "inputs": [
        {
          "internalType": "uint256",
          "name": "_productId",
          "type": "uint256"
        }
      ],
      "name": "getProduct",
      "outputs": [
        {
          "internalType": "uint256",
          "name": "id",
          "type": "uint256"
        },
        {
          "internalType": "address",
          "name": "seller",
          "type": "address"
        },
        {
          "internalType": "string",
          "name": "name",
          "type": "string"
        },
        {
          "internalType": "string",
          "name": "description",
          "type": "string"
        },
        {
          "internalType": "uint256",
          "name": "price",
          "type": "uint256"
        },
        {
          "internalType": "uint256",
          "name": "stock",
          "type": "uint256"
        }
      ],
      "stateMutability": "view",
      "type": "function"
    },
    {
      "inputs": [
        {
          "internalType": "address",
          "name": "_buyer",
          "type": "address"
        }
      ],
      "name": "getTransactionsByBuyer",
      "outputs": [
        {
          "components": [
            {
              "internalType": "address",
              "name": "buyer",
              "type": "address"
            },
            {
              "internalType": "uint256",
              "name": "productId",
              "type": "uint256"
            },
            {
              "internalType": "uint256",
              "name": "quantity",
              "type": "uint256"
            },
            {
              "internalType": "uint256",
              "name": "timestamp",
              "type": "uint256"
            }
          ],
          "internalType": "struct Marketplace.Transaction[]",
          "name": "",
          "type": "tuple[]"
        }
      ],
      "stateMutability": "view",
      "type": "function"
    },
    {
      "inputs": [],
      "name": "productCounter",
      "outputs": [
        {
          "internalType": "uint256",
          "name": "",
          "type": "uint256"
        }
      ],
      "stateMutability": "view",
      "type": "function"
    },
    {
      "inputs": [
        {
          "internalType": "uint256",
          "name": "",
          "type": "uint256"
        }
      ],
      "name": "products",
      "outputs": [
        {
          "internalType": "uint256",
          "name": "id",
          "type": "uint256"
        },
        {
          "internalType": "address payable",
          "name": "seller",
          "type": "address"
        },
        {
          "internalType": "string",
          "name": "name",
          "type": "string"
        },
        {
          "internalType": "string",
          "name": "description",
          "type": "string"
        },
        {
          "internalType": "uint256",
          "name": "price",
          "type": "uint256"
        },
        {
          "internalType": "uint256",
          "name": "stock",
          "type": "uint256"
        },
        {
          "internalType": "bool",
          "name": "exists",
          "type": "bool"
        }
      ],
      "stateMutability": "view",
      "type": "function"
    },
    {
      "inputs": [
        {
          "internalType": "uint256[]",
          "name": "productIds",
          "type": "uint256[]"
        },
        {
          "internalType": "uint256[]",
          "name": "quantities",
          "type": "uint256[]"
        }
      ],
      "name": "purchaseMultipleProducts",
      "outputs": [],
      "stateMutability": "payable",
      "type": "function"
    },
    {
      "inputs": [
        {
          "internalType": "uint256",
          "name": "_productId",
          "type": "uint256"
        },
        {
          "internalType": "uint8",
          "name": "_quantity",
          "type": "uint8"
        }
      ],
      "name": "purchaseProduct",
      "outputs": [],
      "stateMutability": "payable",
      "type": "function"
    },
    {
      "inputs": [
        {
          "internalType": "address",
          "name": "_seller",
          "type": "address"
        },
        {
          "internalType": "uint256",
          "name": "_rating",
          "type": "uint256"
        }
      ],
      "name": "rateSeller",
      "outputs": [],
      "stateMutability": "nonpayable",
      "type": "function"
    },
    {
      "inputs": [
        {
          "internalType": "uint256",
          "name": "_productId",
          "type": "uint256"
        }
      ],
      "name": "removeProduct",
      "outputs": [],
      "stateMutability": "nonpayable",
      "type": "function"
    },
    {
      "inputs": [],
      "name": "sellerCounter",
      "outputs": [
        {
          "internalType": "uint256",
          "name": "",
          "type": "uint256"
        }
      ],
      "stateMutability": "view",
      "type": "function"
    },
    {
      "inputs": [
        {
          "internalType": "address",
          "name": "",
          "type": "address"
        }
      ],
      "name": "sellers",
      "outputs": [
        {
          "internalType": "address",
          "name": "sellerAddress",
          "type": "address"
        },
        {
          "internalType": "uint256",
          "name": "totalRating",
          "type": "uint256"
        },
        {
          "internalType": "uint256",
          "name": "ratingCount",
          "type": "uint256"
        }
      ],
      "stateMutability": "view",
      "type": "function"
    },
    {
      "inputs": [
        {
          "internalType": "uint256",
          "name": "",
          "type": "uint256"
        }
      ],
      "name": "transactions",
      "outputs": [
        {
          "internalType": "address",
          "name": "buyer",
          "type": "address"
        },
        {
          "internalType": "uint256",
          "name": "productId",
          "type": "uint256"
        },
        {
          "internalType": "uint256",
          "name": "quantity",
          "type": "uint256"
        },
        {
          "internalType": "uint256",
          "name": "timestamp",
          "type": "uint256"
        }
      ],
      "stateMutability": "view",
      "type": "function"
    },
    {
      "inputs": [
        {
          "internalType": "address",
          "name": "",
          "type": "address"
        },
        {
          "internalType": "uint256",
          "name": "",
          "type": "uint256"
        }
      ],
      "name": "transactionsByBuyer",
      "outputs": [
        {
          "internalType": "uint256",
          "name": "",
          "type": "uint256"
        }
      ],
      "stateMutability": "view",
      "type": "function"
    },
    {
      "inputs": [
        {
          "internalType": "uint256",
          "name": "_productId",
          "type": "uint256"
        },
        {
          "internalType": "string",
          "name": "_newName",
          "type": "string"
        },
        {
          "internalType": "string",
          "name": "_newDescription",
          "type": "string"
        },
        {
          "internalType": "uint256",
          "name": "_newPrice",
          "type": "uint256"
        },
        {
          "internalType": "uint256",
          "name": "_newStock",
          "type": "uint256"
        },
        {
          "internalType": "bool",
          "name": "_exists",
          "type": "bool"
        }
      ],
      "name": "updateProduct",
      "outputs": [],
      "stateMutability": "nonpayable",
      "type": "function"
    }
  ],
  "bytecode": "0x6080604052348015600f57600080fd5b506143cc8061001f6000396000f3fe6080604052600436106101095760003560e01c80636d47ab72116100955780639ace38c2116100645780639ace38c214610376578063a5475c13146103b6578063b21537c3146103f3578063b9db15b41461040f578063c8b675221461045157610109565b80636d47ab72146102a0578063742ab0d3146102df5780637acc0b20146103085780638a5f67231461034b57610109565b80632dc085cf116100dc5780632dc085cf146101b8578063468232f7146101e157806355442bae146101fd57806356d7f1d01461023a5780635ee95cae1461027757610109565b806301cecd141461010e57806302ee3a52146101375780631f16653b1461016257806327506f531461018d575b600080fd5b34801561011a57600080fd5b5061013560048036038101906101309190612d4b565b61048e565b005b34801561014357600080fd5b5061014c6108bc565b6040516101599190613039565b60405180910390f35b34801561016e57600080fd5b50610177610c33565b604051610184919061306a565b60405180910390f35b34801561019957600080fd5b506101a2610c39565b6040516101af91906131aa565b60405180910390f35b3480156101c457600080fd5b506101df60048036038101906101da91906131f8565b610d0c565b005b6101fb60048036038101906101f691906132f6565b610f5a565b005b34801561020957600080fd5b50610224600480360381019061021f9190613362565b6113a0565b6040516102319190613039565b60405180910390f35b34801561024657600080fd5b50610261600480360381019061025c9190613362565b6117a7565b60405161026e91906131aa565b60405180910390f35b34801561028357600080fd5b5061029e6004803603810190610299919061338f565b61194b565b005b3480156102ac57600080fd5b506102c760048036038101906102c29190613362565b611c47565b6040516102d6939291906133cb565b60405180910390f35b3480156102eb57600080fd5b5061030660048036038101906103019190613402565b611c91565b005b34801561031457600080fd5b5061032f600480360381019061032a919061338f565b611f25565b60405161034297969594939291906134aa565b60405180910390f35b34801561035757600080fd5b506103606120a4565b60405161036d919061306a565b60405180910390f35b34801561038257600080fd5b5061039d6004803603810190610398919061338f565b6120aa565b6040516103ad9493929190613527565b60405180910390f35b3480156103c257600080fd5b506103dd60048036038101906103d89190613402565b61210a565b6040516103ea919061306a565b60405180910390f35b61040d600480360381019061040891906135cc565b61213b565b005b34801561041b57600080fd5b506104366004803603810190610431919061338f565b6128c4565b6040516104489695949392919061364d565b60405180910390f35b34801561045d57600080fd5b5061047860048036038101906104739190613362565b612ab1565b604051610485919061306a565b60405180910390f35b60008054906101000a900460ff16156104dc576040517f08c379a00000000000000000000000000000000000000000000000000000000081526004016104d390613708565b60405180910390fd5b60016000806101000a81548160ff0219169083151502179055506000821180156105065750600081115b610545576040517f08c379a000000000000000000000000000000000000000000000000000000000815260040161053c9061379a565b60405180910390fd5b600073ffffffffffffffffffffffffffffffffffffffff16600760003373ffffffffffffffffffffffffffffffffffffffff1673ffffffffffffffffffffffffffffffffffffffff16815260200190815260200160002060000160009054906101000a900473ffffffffffffffffffffffffffffffffffffffff1673ffffffffffffffffffffffffffffffffffffffff16036106c45760405180606001604052803373ffffffffffffffffffffffffffffffffffffffff168152602001600081526020016000815250600760003373ffffffffffffffffffffffffffffffffffffffff1673ffffffffffffffffffffffffffffffffffffffff16815260200190815260200160002060008201518160000160006101000a81548173ffffffffffffffffffffffffffffffffffffffff021916908373ffffffffffffffffffffffffffffffffffffffff1602179055506020820151816001015560408201518160020155905050600260008154809291906106be906137e9565b91905055505b600160008154809291906106d7906137e9565b91905055506040518060e0016040528060015481526020013373ffffffffffffffffffffffffffffffffffffffff168152602001858152602001848152602001838152602001828152602001600115158152506004600060015481526020019081526020016000206000820151816000015560208201518160010160006101000a81548173ffffffffffffffffffffffffffffffffffffffff021916908373ffffffffffffffffffffffffffffffffffffffff16021790555060408201518160020190816107a59190613a3d565b5060608201518160030190816107bb9190613a3d565b506080820151816004015560a0820151816005015560c08201518160060160006101000a81548160ff021916908315150217905550905050600660003373ffffffffffffffffffffffffffffffffffffffff1673ffffffffffffffffffffffffffffffffffffffff16815260200190815260200160002060015490806001815401808255809150506001900390600052602060002001600090919091909150557f9602ea61e5616caa15fba534e20c5a5ab159fff73d12aa24b852febf42c2fe1f60015485858585604051610894959493929190613b0f565b60405180910390a160008060006101000a81548160ff02191690831515021790555050505050565b6060600080600190505b600154811161091a576004600082815260200190815260200160002060060160009054906101000a900460ff1615610907578180610903906137e9565b9250505b8080610912906137e9565b9150506108c6565b50600081036109855760008067ffffffffffffffff81111561093f5761093e612bea565b5b60405190808252806020026020018201604052801561097857816020015b610965612b28565b81526020019060019003908161095d5790505b5090508092505050610c30565b60008167ffffffffffffffff8111156109a1576109a0612bea565b5b6040519080825280602002602001820160405280156109da57816020015b6109c7612b28565b8152602001906001900390816109bf5790505b509050600080600190505b6001548111610c28576004600082815260200190815260200160002060060160009054906101000a900460ff1615610c1557600460008281526020019081526020016000206040518060e0016040529081600082015481526020016001820160009054906101000a900473ffffffffffffffffffffffffffffffffffffffff1673ffffffffffffffffffffffffffffffffffffffff1673ffffffffffffffffffffffffffffffffffffffff168152602001600282018054610aa590613860565b80601f0160208091040260200160405190810160405280929190818152602001828054610ad190613860565b8015610b1e5780601f10610af357610100808354040283529160200191610b1e565b820191906000526020600020905b815481529060010190602001808311610b0157829003601f168201915b50505050508152602001600382018054610b3790613860565b80601f0160208091040260200160405190810160405280929190818152602001828054610b6390613860565b8015610bb05780601f10610b8557610100808354040283529160200191610bb0565b820191906000526020600020905b815481529060010190602001808311610b9357829003601f168201915b5050505050815260200160048201548152602001600582015481526020016006820160009054906101000a900460ff161515151581525050838381518110610bfb57610bfa613b70565b5b60200260200101819052508180610c11906137e9565b9250505b8080610c20906137e9565b9150506109e5565b508193505050505b90565b60015481565b60606003805480602002602001604051908101604052809291908181526020016000905b82821015610d0357838290600052602060002090600402016040518060800160405290816000820160009054906101000a900473ffffffffffffffffffffffffffffffffffffffff1673ffffffffffffffffffffffffffffffffffffffff1673ffffffffffffffffffffffffffffffffffffffff168152602001600182015481526020016002820154815260200160038201548152505081526020019060010190610c5d565b50505050905090565b60008054906101000a900460ff1615610d5a576040517f08c379a0000000000000000000000000000000000000000000000000000000008152600401610d5190613708565b60405180910390fd5b60016000806101000a81548160ff021916908315150217905550853373ffffffffffffffffffffffffffffffffffffffff166004600083815260200190815260200160002060010160009054906101000a900473ffffffffffffffffffffffffffffffffffffffff1673ffffffffffffffffffffffffffffffffffffffff1614610e19576040517f08c379a0000000000000000000000000000000000000000000000000000000008152600401610e1090613beb565b60405180910390fd5b866004600082815260200190815260200160002060060160009054906101000a900460ff16610e7d576040517f08c379a0000000000000000000000000000000000000000000000000000000008152600401610e7490613c57565b60405180910390fd5b600085118015610e8d5750600084115b610ecc576040517f08c379a0000000000000000000000000000000000000000000000000000000008152600401610ec390613cc3565b60405180910390fd5b6000600460008a8152602001908152602001600020905085816004018190555087816002019081610efd9190613a3d565b5086816003019081610f0f9190613a3d565b50848160050181905550838160060160006101000a81548160ff02191690831515021790555050505060008060006101000a81548160ff021916908315150217905550505050505050565b60008054906101000a900460ff1615610fa8576040517f08c379a0000000000000000000000000000000000000000000000000000000008152600401610f9f90613708565b60405180910390fd5b60016000806101000a81548160ff021916908315150217905550816004600082815260200190815260200160002060060160009054906101000a900460ff16611026576040517f08c379a000000000000000000000000000000000000000000000000000000000815260040161101d90613c57565b60405180910390fd5b60008260ff1611801561104f575060006004600085815260200190815260200160002060050154115b801561107457508160ff16600460008581526020019081526020016000206005015410155b61107d57600080fd5b60008260ff1660046000868152602001908152602001600020600401546110a49190613ce3565b9050803410156110e9576040517f08c379a00000000000000000000000000000000000000000000000000000000081526004016110e090613d97565b60405180910390fd5b8260ff166004600086815260200190815260200160002060050160008282546111129190613db7565b9250508190555060006004600086815260200190815260200160002060010160009054906101000a900473ffffffffffffffffffffffffffffffffffffffff1673ffffffffffffffffffffffffffffffffffffffff168260405161117590613e1c565b60006040518083038185875af1925050503d80600081146111b2576040519150601f19603f3d011682016040523d82523d6000602084013e6111b7565b606091505b50509050806111fb576040517f08c379a00000000000000000000000000000000000000000000000000000000081526004016111f290613e7d565b60405180910390fd5b600060405180608001604052803373ffffffffffffffffffffffffffffffffffffffff1681526020018781526020018660ff168152602001428152509050600381908060018154018082558091505060019003906000526020600020906004020160009091909190915060008201518160000160006101000a81548173ffffffffffffffffffffffffffffffffffffffff021916908373ffffffffffffffffffffffffffffffffffffffff1602179055506020820151816001015560408201518160020155606082015181600301555050600560003373ffffffffffffffffffffffffffffffffffffffff1673ffffffffffffffffffffffffffffffffffffffff168152602001908152602001600020600160038054905061131d9190613db7565b90806001815401808255809150506001900390600052602060002001600090919091909150557fa530f889d7f1bd9a73028e48944ca013ab2c6624a31e3fa26f923f4bb719abd586338760405161137693929190613ece565b60405180910390a15050505060008060006101000a81548160ff0219169083151502179055505050565b60606000600660008473ffffffffffffffffffffffffffffffffffffffff1673ffffffffffffffffffffffffffffffffffffffff16815260200190815260200160002090506000805b8280549050811015611457576004600084838154811061140c5761140b613b70565b5b9060005260206000200154815260200190815260200160002060060160009054906101000a900460ff161561144a578180611446906137e9565b9250505b80806001019150506113e9565b50600081036114c35760008067ffffffffffffffff81111561147c5761147b612bea565b5b6040519080825280602002602001820160405280156114b557816020015b6114a2612b28565b81526020019060019003908161149a5790505b5090508093505050506117a2565b60008167ffffffffffffffff8111156114df576114de612bea565b5b60405190808252806020026020018201604052801561151857816020015b611505612b28565b8152602001906001900390816114fd5790505b5090506000805b8480549050811015611799576004600086838154811061154257611541613b70565b5b9060005260206000200154815260200190815260200160002060060160009054906101000a900460ff161561178c576004600086838154811061158857611587613b70565b5b906000526020600020015481526020019081526020016000206040518060e0016040529081600082015481526020016001820160009054906101000a900473ffffffffffffffffffffffffffffffffffffffff1673ffffffffffffffffffffffffffffffffffffffff1673ffffffffffffffffffffffffffffffffffffffff16815260200160028201805461161c90613860565b80601f016020809104026020016040519081016040528092919081815260200182805461164890613860565b80156116955780601f1061166a57610100808354040283529160200191611695565b820191906000526020600020905b81548152906001019060200180831161167857829003601f168201915b505050505081526020016003820180546116ae90613860565b80601f01602080910402602001604051908101604052809291908181526020018280546116da90613860565b80156117275780601f106116fc57610100808354040283529160200191611727565b820191906000526020600020905b81548152906001019060200180831161170a57829003601f168201915b5050505050815260200160048201548152602001600582015481526020016006820160009054906101000a900460ff16151515158152505083838151811061177257611771613b70565b5b60200260200101819052508180611788906137e9565b9250505b808060010191505061151f565b50819450505050505b919050565b60606000600560008473ffffffffffffffffffffffffffffffffffffffff1673ffffffffffffffffffffffffffffffffffffffff16815260200190815260200160002090506000818054905067ffffffffffffffff81111561180c5761180b612bea565b5b60405190808252806020026020018201604052801561184557816020015b611832612b7d565b81526020019060019003908161182a5790505b50905060005b828054905081101561194057600383828154811061186c5761186b613b70565b5b90600052602060002001548154811061188857611887613b70565b5b90600052602060002090600402016040518060800160405290816000820160009054906101000a900473ffffffffffffffffffffffffffffffffffffffff1673ffffffffffffffffffffffffffffffffffffffff1673ffffffffffffffffffffffffffffffffffffffff168152602001600182015481526020016002820154815260200160038201548152505082828151811061192857611927613b70565b5b6020026020010181905250808060010191505061184b565b508092505050919050565b60008054906101000a900460ff1615611999576040517f08c379a000000000000000000000000000000000000000000000000000000000815260040161199090613708565b60405180910390fd5b60016000806101000a81548160ff021916908315150217905550803373ffffffffffffffffffffffffffffffffffffffff166004600083815260200190815260200160002060010160009054906101000a900473ffffffffffffffffffffffffffffffffffffffff1673ffffffffffffffffffffffffffffffffffffffff1614611a58576040517f08c379a0000000000000000000000000000000000000000000000000000000008152600401611a4f90613beb565b60405180910390fd5b816004600082815260200190815260200160002060060160009054906101000a900460ff16611abc576040517f08c379a0000000000000000000000000000000000000000000000000000000008152600401611ab390613c57565b60405180910390fd5b600060046000858152602001908152602001600020905060008160060160006101000a81548160ff0219169083151502179055506000600660003373ffffffffffffffffffffffffffffffffffffffff1673ffffffffffffffffffffffffffffffffffffffff168152602001908152602001600020905060005b8180549050811015611bee5785828281548110611b5657611b55613b70565b5b906000526020600020015403611be1578160018380549050611b789190613db7565b81548110611b8957611b88613b70565b5b9060005260206000200154828281548110611ba757611ba6613b70565b5b906000526020600020018190555081805480611bc657611bc5613f05565b5b60019003818190600052602060002001600090559055611bee565b8080600101915050611b36565b507f07015631cff457b5b13492c2045e70c6305a0a4aa773e432e79abbe2cf52c1eb85604051611c1e919061306a565b60405180910390a15050505060008060006101000a81548160ff02191690831515021790555050565b60076020528060005260406000206000915090508060000160009054906101000a900473ffffffffffffffffffffffffffffffffffffffff16908060010154908060020154905083565b60008054906101000a900460ff1615611cdf576040517f08c379a0000000000000000000000000000000000000000000000000000000008152600401611cd690613708565b60405180910390fd5b60016000806101000a81548160ff02191690831515021790555060018110158015611d0b575060058111155b611d4a576040517f08c379a0000000000000000000000000000000000000000000000000000000008152600401611d4190613f80565b60405180910390fd5b600073ffffffffffffffffffffffffffffffffffffffff16600760008473ffffffffffffffffffffffffffffffffffffffff1673ffffffffffffffffffffffffffffffffffffffff16815260200190815260200160002060000160009054906101000a900473ffffffffffffffffffffffffffffffffffffffff1673ffffffffffffffffffffffffffffffffffffffff1603611e1b576040517f08c379a0000000000000000000000000000000000000000000000000000000008152600401611e1290613fec565b60405180910390fd5b80600760008473ffffffffffffffffffffffffffffffffffffffff1673ffffffffffffffffffffffffffffffffffffffff1681526020019081526020016000206001016000828254611e6d919061400c565b92505081905550600760008373ffffffffffffffffffffffffffffffffffffffff1673ffffffffffffffffffffffffffffffffffffffff1681526020019081526020016000206002016000815480929190611ec7906137e9565b91905055507fd1e1a75de6d871246d9a51ee6f672019e38ac805a7adf094efce5b204ad2e84c828233604051611eff93929190614040565b60405180910390a160008060006101000a81548160ff0219169083151502179055505050565b60046020528060005260406000206000915090508060000154908060010160009054906101000a900473ffffffffffffffffffffffffffffffffffffffff1690806002018054611f7490613860565b80601f0160208091040260200160405190810160405280929190818152602001828054611fa090613860565b8015611fed5780601f10611fc257610100808354040283529160200191611fed565b820191906000526020600020905b815481529060010190602001808311611fd057829003601f168201915b50505050509080600301805461200290613860565b80601f016020809104026020016040519081016040528092919081815260200182805461202e90613860565b801561207b5780601f106120505761010080835404028352916020019161207b565b820191906000526020600020905b81548152906001019060200180831161205e57829003601f168201915b5050505050908060040154908060050154908060060160009054906101000a900460ff16905087565b60025481565b600381815481106120ba57600080fd5b90600052602060002090600402016000915090508060000160009054906101000a900473ffffffffffffffffffffffffffffffffffffffff16908060010154908060020154908060030154905084565b6005602052816000526040600020818154811061212657600080fd5b90600052602060002001600091509150505481565b60008054906101000a900460ff1615612189576040517f08c379a000000000000000000000000000000000000000000000000000000000815260040161218090613708565b60405180910390fd5b60016000806101000a81548160ff0219169083151502179055508181905084849050146121eb576040517f08c379a00000000000000000000000000000000000000000000000000000000081526004016121e2906140c3565b60405180910390fd5b6000808585905067ffffffffffffffff81111561220b5761220a612bea565b5b6040519080825280602002602001820160405280156122395781602001602082028036833780820191505090505b50905060008686905067ffffffffffffffff81111561225b5761225a612bea565b5b6040519080825280602002602001820160405280156122895781602001602082028036833780820191505090505b5090506000805b888890508110156126a15760008989838181106122b0576122af613b70565b5b90506020020135905060008888848181106122ce576122cd613b70565b5b90506020020135905060006004600084815260200190815260200160002090508060060160009054906101000a900460ff1661233f576040517f08c379a00000000000000000000000000000000000000000000000000000000081526004016123369061412f565b60405180910390fd5b8181600501541015612386576040517f08c379a000000000000000000000000000000000000000000000000000000000815260040161237d9061419b565b60405180910390fd5b60008282600401546123989190613ce3565b905080896123a6919061400c565b9850828260050160008282546123bc9190613db7565b9250508190555060008260010160009054906101000a900473ffffffffffffffffffffffffffffffffffffffff1690506000805b8881101561248a578273ffffffffffffffffffffffffffffffffffffffff168b828151811061242257612421613b70565b5b602002602001015173ffffffffffffffffffffffffffffffffffffffff160361247d57838a828151811061245957612458613b70565b5b6020026020010181815161246d919061400c565b915081815250506001915061248a565b80806001019150506123f0565b508061250d57818a89815181106124a4576124a3613b70565b5b602002602001019073ffffffffffffffffffffffffffffffffffffffff16908173ffffffffffffffffffffffffffffffffffffffff1681525050828989815181106124f2576124f1613b70565b5b6020026020010181815250508780612509906137e9565b9850505b600060405180608001604052803373ffffffffffffffffffffffffffffffffffffffff168152602001888152602001878152602001428152509050600381908060018154018082558091505060019003906000526020600020906004020160009091909190915060008201518160000160006101000a81548173ffffffffffffffffffffffffffffffffffffffff021916908373ffffffffffffffffffffffffffffffffffffffff1602179055506020820151816001015560408201518160020155606082015181600301555050600560003373ffffffffffffffffffffffffffffffffffffffff1673ffffffffffffffffffffffffffffffffffffffff168152602001908152602001600020600160038054905061262c9190613db7565b90806001815401808255809150506001900390600052602060002001600090919091909150557fa530f889d7f1bd9a73028e48944ca013ab2c6624a31e3fa26f923f4bb719abd5873388604051612685939291906141bb565b60405180910390a1505050505050508080600101915050612290565b50833410156126e5576040517f08c379a00000000000000000000000000000000000000000000000000000000081526004016126dc9061423e565b60405180910390fd5b60005b818110156127de57600084828151811061270557612704613b70565b5b602002602001015173ffffffffffffffffffffffffffffffffffffffff1684838151811061273657612735613b70565b5b602002602001015160405161274a90613e1c565b60006040518083038185875af1925050503d8060008114612787576040519150601f19603f3d011682016040523d82523d6000602084013e61278c565b606091505b50509050806127d0576040517f08c379a00000000000000000000000000000000000000000000000000000000081526004016127c7906142aa565b60405180910390fd5b5080806001019150506126e8565b50833411156128a05760003373ffffffffffffffffffffffffffffffffffffffff16853461280c9190613db7565b60405161281890613e1c565b60006040518083038185875af1925050503d8060008114612855576040519150601f19603f3d011682016040523d82523d6000602084013e61285a565b606091505b505090508061289e576040517f08c379a000000000000000000000000000000000000000000000000000000000815260040161289590614316565b60405180910390fd5b505b5050505060008060006101000a81548160ff02191690831515021790555050505050565b6000806060806000806004600088815260200190815260200160002060060160009054906101000a900460ff16612930576040517f08c379a000000000000000000000000000000000000000000000000000000000815260040161292790613c57565b60405180910390fd5b600060046000898152602001908152602001600020905080600001548160010160009054906101000a900473ffffffffffffffffffffffffffffffffffffffff1682600201836003018460040154856005015483805461298f90613860565b80601f01602080910402602001604051908101604052809291908181526020018280546129bb90613860565b8015612a085780601f106129dd57610100808354040283529160200191612a08565b820191906000526020600020905b8154815290600101906020018083116129eb57829003601f168201915b50505050509350828054612a1b90613860565b80601f0160208091040260200160405190810160405280929190818152602001828054612a4790613860565b8015612a945780601f10612a6957610100808354040283529160200191612a94565b820191906000526020600020905b815481529060010190602001808311612a7757829003601f168201915b505050505092509650965096509650965096505091939550919395565b600080600760008473ffffffffffffffffffffffffffffffffffffffff1673ffffffffffffffffffffffffffffffffffffffff16815260200190815260200160002090506000816002015403612b0b576000915050612b23565b80600201548160010154612b1f9190614365565b9150505b919050565b6040518060e0016040528060008152602001600073ffffffffffffffffffffffffffffffffffffffff168152602001606081526020016060815260200160008152602001600081526020016000151581525090565b6040518060800160405280600073ffffffffffffffffffffffffffffffffffffffff1681526020016000815260200160008152602001600081525090565b6000604051905090565b600080fd5b600080fd5b600080fd5b600080fd5b6000601f19601f8301169050919050565b7f4e487b7100000000000000000000000000000000000000000000000000000000600052604160045260246000fd5b612c2282612bd9565b810181811067ffffffffffffffff82111715612c4157612c40612bea565b5b80604052505050565b6000612c54612bbb565b9050612c608282612c19565b919050565b600067ffffffffffffffff821115612c8057612c7f612bea565b5b612c8982612bd9565b9050602081019050919050565b82818337600083830152505050565b6000612cb8612cb384612c65565b612c4a565b905082815260208101848484011115612cd457612cd3612bd4565b5b612cdf848285612c96565b509392505050565b600082601f830112612cfc57612cfb612bcf565b5b8135612d0c848260208601612ca5565b91505092915050565b6000819050919050565b612d2881612d15565b8114612d3357600080fd5b50565b600081359050612d4581612d1f565b92915050565b60008060008060808587031215612d6557612d64612bc5565b5b600085013567ffffffffffffffff811115612d8357612d82612bca565b5b612d8f87828801612ce7565b945050602085013567ffffffffffffffff811115612db057612daf612bca565b5b612dbc87828801612ce7565b9350506040612dcd87828801612d36565b9250506060612dde87828801612d36565b91505092959194509250565b600081519050919050565b600082825260208201905092915050565b6000819050602082019050919050565b612e1f81612d15565b82525050565b600073ffffffffffffffffffffffffffffffffffffffff82169050919050565b6000612e5082612e25565b9050919050565b612e6081612e45565b82525050565b600081519050919050565b600082825260208201905092915050565b60005b83811015612ea0578082015181840152602081019050612e85565b60008484015250505050565b6000612eb782612e66565b612ec18185612e71565b9350612ed1818560208601612e82565b612eda81612bd9565b840191505092915050565b60008115159050919050565b612efa81612ee5565b82525050565b600060e083016000830151612f186000860182612e16565b506020830151612f2b6020860182612e57565b5060408301518482036040860152612f438282612eac565b91505060608301518482036060860152612f5d8282612eac565b9150506080830151612f726080860182612e16565b5060a0830151612f8560a0860182612e16565b5060c0830151612f9860c0860182612ef1565b508091505092915050565b6000612faf8383612f00565b905092915050565b6000602082019050919050565b6000612fcf82612dea565b612fd98185612df5565b935083602082028501612feb85612e06565b8060005b8581101561302757848403895281516130088582612fa3565b945061301383612fb7565b925060208a01995050600181019050612fef565b50829750879550505050505092915050565b600060208201905081810360008301526130538184612fc4565b905092915050565b61306481612d15565b82525050565b600060208201905061307f600083018461305b565b92915050565b600081519050919050565b600082825260208201905092915050565b6000819050602082019050919050565b60006130bc82612e25565b9050919050565b6130cc816130b1565b82525050565b6080820160008201516130e860008501826130c3565b5060208201516130fb6020850182612e16565b50604082015161310e6040850182612e16565b5060608201516131216060850182612e16565b50505050565b600061313383836130d2565b60808301905092915050565b6000602082019050919050565b600061315782613085565b6131618185613090565b935061316c836130a1565b8060005b8381101561319d5781516131848882613127565b975061318f8361313f565b925050600181019050613170565b5085935050505092915050565b600060208201905081810360008301526131c4818461314c565b905092915050565b6131d581612ee5565b81146131e057600080fd5b50565b6000813590506131f2816131cc565b92915050565b60008060008060008060c0878903121561321557613214612bc5565b5b600061322389828a01612d36565b965050602087013567ffffffffffffffff81111561324457613243612bca565b5b61325089828a01612ce7565b955050604087013567ffffffffffffffff81111561327157613270612bca565b5b61327d89828a01612ce7565b945050606061328e89828a01612d36565b935050608061329f89828a01612d36565b92505060a06132b089828a016131e3565b9150509295509295509295565b600060ff82169050919050565b6132d3816132bd565b81146132de57600080fd5b50565b6000813590506132f0816132ca565b92915050565b6000806040838503121561330d5761330c612bc5565b5b600061331b85828601612d36565b925050602061332c858286016132e1565b9150509250929050565b61333f816130b1565b811461334a57600080fd5b50565b60008135905061335c81613336565b92915050565b60006020828403121561337857613377612bc5565b5b60006133868482850161334d565b91505092915050565b6000602082840312156133a5576133a4612bc5565b5b60006133b384828501612d36565b91505092915050565b6133c5816130b1565b82525050565b60006060820190506133e060008301866133bc565b6133ed602083018561305b565b6133fa604083018461305b565b949350505050565b6000806040838503121561341957613418612bc5565b5b60006134278582860161334d565b925050602061343885828601612d36565b9150509250929050565b61344b81612e45565b82525050565b600082825260208201905092915050565b600061346d82612e66565b6134778185613451565b9350613487818560208601612e82565b61349081612bd9565b840191505092915050565b6134a481612ee5565b82525050565b600060e0820190506134bf600083018a61305b565b6134cc6020830189613442565b81810360408301526134de8188613462565b905081810360608301526134f28187613462565b9050613501608083018661305b565b61350e60a083018561305b565b61351b60c083018461349b565b98975050505050505050565b600060808201905061353c60008301876133bc565b613549602083018661305b565b613556604083018561305b565b613563606083018461305b565b95945050505050565b600080fd5b600080fd5b60008083601f84011261358c5761358b612bcf565b5b8235905067ffffffffffffffff8111156135a9576135a861356c565b5b6020830191508360208202830111156135c5576135c4613571565b5b9250929050565b600080600080604085870312156135e6576135e5612bc5565b5b600085013567ffffffffffffffff81111561360457613603612bca565b5b61361087828801613576565b9450945050602085013567ffffffffffffffff81111561363357613632612bca565b5b61363f87828801613576565b925092505092959194509250565b600060c082019050613662600083018961305b565b61366f60208301886133bc565b81810360408301526136818187613462565b905081810360608301526136958186613462565b90506136a4608083018561305b565b6136b160a083018461305b565b979650505050505050565b7f5265656e7472616e637920646574656374656400000000000000000000000000600082015250565b60006136f2601383613451565b91506136fd826136bc565b602082019050919050565b60006020820190508181036000830152613721816136e5565b9050919050565b7f507269636520616e642073746f636b206d75737420626520706f73697469766560008201527f2e00000000000000000000000000000000000000000000000000000000000000602082015250565b6000613784602183613451565b915061378f82613728565b604082019050919050565b600060208201905081810360008301526137b381613777565b9050919050565b7f4e487b7100000000000000000000000000000000000000000000000000000000600052601160045260246000fd5b60006137f482612d15565b91507fffffffffffffffffffffffffffffffffffffffffffffffffffffffffffffffff8203613826576138256137ba565b5b600182019050919050565b7f4e487b7100000000000000000000000000000000000000000000000000000000600052602260045260246000fd5b6000600282049050600182168061387857607f821691505b60208210810361388b5761388a613831565b5b50919050565b60008190508160005260206000209050919050565b60006020601f8301049050919050565b600082821b905092915050565b6000600883026138f37fffffffffffffffffffffffffffffffffffffffffffffffffffffffffffffffff826138b6565b6138fd86836138b6565b95508019841693508086168417925050509392505050565b6000819050919050565b600061393a61393561393084612d15565b613915565b612d15565b9050919050565b6000819050919050565b6139548361391f565b61396861396082613941565b8484546138c3565b825550505050565b600090565b61397d613970565b61398881848461394b565b505050565b5b818110156139ac576139a1600082613975565b60018101905061398e565b5050565b601f8211156139f1576139c281613891565b6139cb846138a6565b810160208510156139da578190505b6139ee6139e6856138a6565b83018261398d565b50505b505050565b600082821c905092915050565b6000613a14600019846008026139f6565b1980831691505092915050565b6000613a2d8383613a03565b9150826002028217905092915050565b613a4682612e66565b67ffffffffffffffff811115613a5f57613a5e612bea565b5b613a698254613860565b613a748282856139b0565b600060209050601f831160018114613aa75760008415613a95578287015190505b613a9f8582613a21565b865550613b07565b601f198416613ab586613891565b60005b82811015613add57848901518255600182019150602085019450602081019050613ab8565b86831015613afa5784890151613af6601f891682613a03565b8355505b6001600288020188555050505b505050505050565b600060a082019050613b24600083018861305b565b8181036020830152613b368187613462565b90508181036040830152613b4a8186613462565b9050613b59606083018561305b565b613b66608083018461305b565b9695505050505050565b7f4e487b7100000000000000000000000000000000000000000000000000000000600052603260045260246000fd5b7f4e6f74207468652070726f647563742073656c6c65722e000000000000000000600082015250565b6000613bd5601783613451565b9150613be082613b9f565b602082019050919050565b60006020820190508181036000830152613c0481613bc8565b9050919050565b7f50726f6475637420646f65736e27742065786973740000000000000000000000600082015250565b6000613c41601583613451565b9150613c4c82613c0b565b602082019050919050565b60006020820190508181036000830152613c7081613c34565b9050919050565b7f496e76616c69642070726f647563742064657461696c732e0000000000000000600082015250565b6000613cad601883613451565b9150613cb882613c77565b602082019050919050565b60006020820190508181036000830152613cdc81613ca0565b9050919050565b6000613cee82612d15565b9150613cf983612d15565b9250828202613d0781612d15565b91508282048414831517613d1e57613d1d6137ba565b5b5092915050565b7f496e73756666696369656e74206f72206578636573732066756e64732070726f60008201527f7669646564000000000000000000000000000000000000000000000000000000602082015250565b6000613d81602583613451565b9150613d8c82613d25565b604082019050919050565b60006020820190508181036000830152613db081613d74565b9050919050565b6000613dc282612d15565b9150613dcd83612d15565b9250828203905081811115613de557613de46137ba565b5b92915050565b600081905092915050565b50565b6000613e06600083613deb565b9150613e1182613df6565b600082019050919050565b6000613e2782613df9565b9150819050919050565b7f4661696c656420746f2073656e742045544820746f2073656c6c657200000000600082015250565b6000613e67601c83613451565b9150613e7282613e31565b602082019050919050565b60006020820190508181036000830152613e9681613e5a565b9050919050565b6000613eb8613eb3613eae846132bd565b613915565b612d15565b9050919050565b613ec881613e9d565b82525050565b6000606082019050613ee3600083018661305b565b613ef060208301856133bc565b613efd6040830184613ebf565b949350505050565b7f4e487b7100000000000000000000000000000000000000000000000000000000600052603160045260246000fd5b7f526174696e67206d757374206265206265747765656e203120616e6420352e00600082015250565b6000613f6a601f83613451565b9150613f7582613f34565b602082019050919050565b60006020820190508181036000830152613f9981613f5d565b9050919050565b7f53656c6c657220646f6573206e6f742065786973742e00000000000000000000600082015250565b6000613fd6601683613451565b9150613fe182613fa0565b602082019050919050565b6000602082019050818103600083015261400581613fc9565b9050919050565b600061401782612d15565b915061402283612d15565b925082820190508082111561403a576140396137ba565b5b92915050565b600060608201905061405560008301866133bc565b614062602083018561305b565b61406f60408301846133bc565b949350505050565b7f4d69736d61746368656420617272617973000000000000000000000000000000600082015250565b60006140ad601183613451565b91506140b882614077565b602082019050919050565b600060208201905081810360008301526140dc816140a0565b9050919050565b7f50726f647563742072656d6f7665640000000000000000000000000000000000600082015250565b6000614119600f83613451565b9150614124826140e3565b602082019050919050565b600060208201905081810360008301526141488161410c565b9050919050565b7f4e6f7420656e6f7567682073746f636b00000000000000000000000000000000600082015250565b6000614185601083613451565b91506141908261414f565b602082019050919050565b600060208201905081810360008301526141b481614178565b9050919050565b60006060820190506141d0600083018661305b565b6141dd60208301856133bc565b6141ea604083018461305b565b949350505050565b7f496e73756666696369656e74205061796d656e74000000000000000000000000600082015250565b6000614228601483613451565b9150614233826141f2565b602082019050919050565b600060208201905081810360008301526142578161421b565b9050919050565b7f5061796d656e7420746f2073656c6c6572206661696c65640000000000000000600082015250565b6000614294601883613451565b915061429f8261425e565b602082019050919050565b600060208201905081810360008301526142c381614287565b9050919050565b7f526566756e64206661696c656400000000000000000000000000000000000000600082015250565b6000614300600d83613451565b915061430b826142ca565b602082019050919050565b6000602082019050818103600083015261432f816142f3565b9050919050565b7f4e487b7100000000000000000000000000000000000000000000000000000000600052601260045260246000fd5b600061437082612d15565b915061437b83612d15565b92508261438b5761438a614336565b5b82820490509291505056fea2646970667358221220a478d2d900ee0e454a205ed1215de359ce9b7c3a0bf418eaf3c433ec882c379e64736f6c634300081c0033",
  "linkReferences": {},
  "deployedLinkReferences": {}
}