{
  "_format": "hh-sol-artifact-1",
  "contractName": "Marketplace",
  "sourceName": "contracts/FruitMarketplace.sol",
  "abi": [
    {
      "anonymous": false,
      "inputs": [
        {
          "indexed": false,
          "internalType": "uint256",
          "name": "productId",
          "type": "uint256"
        },
        {
          "indexed": false,
          "internalType": "string",
          "name": "name",
          "type": "string"
        },
        {
          "indexed": false,
          "internalType": "uint256",
          "name": "price",
          "type": "uint256"
        },
        {
          "indexed": false,
          "internalType": "uint256",
          "name": "stock",
          "type": "uint256"
        }
      ],
      "name": "ProductAdded",
      "type": "event"
    },
    {
      "anonymous": false,
      "inputs": [
        {
          "indexed": false,
          "internalType": "uint256",
          "name": "productId",
          "type": "uint256"
        },
        {
          "indexed": false,
          "internalType": "address",
          "name": "buyer",
          "type": "address"
        },
        {
          "indexed": false,
          "internalType": "uint256",
          "name": "stock",
          "type": "uint256"
        }
      ],
      "name": "ProductPurchased",
      "type": "event"
    },
    {
      "anonymous": false,
      "inputs": [
        {
          "indexed": false,
          "internalType": "uint256",
          "name": "productId",
          "type": "uint256"
        }
      ],
      "name": "ProductRemoved",
      "type": "event"
    },
    {
      "anonymous": false,
      "inputs": [
        {
          "indexed": false,
          "internalType": "address",
          "name": "seller",
          "type": "address"
        },
        {
          "indexed": false,
          "internalType": "uint256",
          "name": "rating",
          "type": "uint256"
        },
        {
          "indexed": false,
          "internalType": "address",
          "name": "buyer",
          "type": "address"
        }
      ],
      "name": "SellerRated",
      "type": "event"
    },
    {
      "inputs": [
        {
          "internalType": "string",
          "name": "_name",
          "type": "string"
        },
        {
          "internalType": "string",
          "name": "_description",
          "type": "string"
        },
        {
          "internalType": "uint256",
          "name": "_price",
          "type": "uint256"
        },
        {
          "internalType": "uint256",
          "name": "_stock",
          "type": "uint256"
        }
      ],
      "name": "addProduct",
      "outputs": [],
      "stateMutability": "nonpayable",
      "type": "function"
    },
    {
      "inputs": [],
      "name": "getAllProducts",
      "outputs": [
        {
          "components": [
            {
              "internalType": "uint256",
              "name": "id",
              "type": "uint256"
            },
            {
              "internalType": "address payable",
              "name": "seller",
              "type": "address"
            },
            {
              "internalType": "string",
              "name": "name",
              "type": "string"
            },
            {
              "internalType": "string",
              "name": "description",
              "type": "string"
            },
            {
              "internalType": "uint256",
              "name": "price",
              "type": "uint256"
            },
            {
              "internalType": "uint256",
              "name": "stock",
              "type": "uint256"
            },
            {
              "internalType": "bool",
              "name": "exists",
              "type": "bool"
            }
          ],
          "internalType": "struct Marketplace.Product[]",
          "name": "",
          "type": "tuple[]"
        }
      ],
      "stateMutability": "view",
      "type": "function"
    },
    {
      "inputs": [
        {
          "internalType": "address",
          "name": "owner",
          "type": "address"
        }
      ],
      "name": "getAllProductsByOwner",
      "outputs": [
        {
          "components": [
            {
              "internalType": "uint256",
              "name": "id",
              "type": "uint256"
            },
            {
              "internalType": "address payable",
              "name": "seller",
              "type": "address"
            },
            {
              "internalType": "string",
              "name": "name",
              "type": "string"
            },
            {
              "internalType": "string",
              "name": "description",
              "type": "string"
            },
            {
              "internalType": "uint256",
              "name": "price",
              "type": "uint256"
            },
            {
              "internalType": "uint256",
              "name": "stock",
              "type": "uint256"
            },
            {
              "internalType": "bool",
              "name": "exists",
              "type": "bool"
            }
          ],
          "internalType": "struct Marketplace.Product[]",
          "name": "",
          "type": "tuple[]"
        }
      ],
      "stateMutability": "view",
      "type": "function"
    },
    {
      "inputs": [],
      "name": "getAllTransactions",
      "outputs": [
        {
          "components": [
            {
              "internalType": "address",
              "name": "buyer",
              "type": "address"
            },
            {
              "internalType": "uint256",
              "name": "productId",
              "type": "uint256"
            },
            {
              "internalType": "uint256",
              "name": "quantity",
              "type": "uint256"
            },
            {
              "internalType": "uint256",
              "name": "timestamp",
              "type": "uint256"
            }
          ],
          "internalType": "struct Marketplace.Transaction[]",
          "name": "",
          "type": "tuple[]"
        }
      ],
      "stateMutability": "view",
      "type": "function"
    },
    {
      "inputs": [
        {
          "internalType": "address",
          "name": "_seller",
          "type": "address"
        }
      ],
      "name": "getAverageRating",
      "outputs": [
        {
          "internalType": "uint256",
          "name": "",
          "type": "uint256"
        }
      ],
      "stateMutability": "view",
      "type": "function"
    },
    {
      "inputs": [
        {
          "internalType": "uint256",
          "name": "_productId",
          "type": "uint256"
        }
      ],
      "name": "getProduct",
      "outputs": [
        {
          "internalType": "uint256",
          "name": "id",
          "type": "uint256"
        },
        {
          "internalType": "address",
          "name": "seller",
          "type": "address"
        },
        {
          "internalType": "string",
          "name": "name",
          "type": "string"
        },
        {
          "internalType": "string",
          "name": "description",
          "type": "string"
        },
        {
          "internalType": "uint256",
          "name": "price",
          "type": "uint256"
        },
        {
          "internalType": "uint256",
          "name": "stock",
          "type": "uint256"
        }
      ],
      "stateMutability": "view",
      "type": "function"
    },
    {
      "inputs": [],
      "name": "productCounter",
      "outputs": [
        {
          "internalType": "uint256",
          "name": "",
          "type": "uint256"
        }
      ],
      "stateMutability": "view",
      "type": "function"
    },
    {
      "inputs": [
        {
          "internalType": "uint256",
          "name": "",
          "type": "uint256"
        }
      ],
      "name": "products",
      "outputs": [
        {
          "internalType": "uint256",
          "name": "id",
          "type": "uint256"
        },
        {
          "internalType": "address payable",
          "name": "seller",
          "type": "address"
        },
        {
          "internalType": "string",
          "name": "name",
          "type": "string"
        },
        {
          "internalType": "string",
          "name": "description",
          "type": "string"
        },
        {
          "internalType": "uint256",
          "name": "price",
          "type": "uint256"
        },
        {
          "internalType": "uint256",
          "name": "stock",
          "type": "uint256"
        },
        {
          "internalType": "bool",
          "name": "exists",
          "type": "bool"
        }
      ],
      "stateMutability": "view",
      "type": "function"
    },
    {
      "inputs": [
        {
          "internalType": "uint256",
          "name": "_productId",
          "type": "uint256"
        },
        {
          "internalType": "uint256",
          "name": "_quantity",
          "type": "uint256"
        }
      ],
      "name": "purchaseProduct",
      "outputs": [],
      "stateMutability": "payable",
      "type": "function"
    },
    {
      "inputs": [
        {
          "internalType": "address",
          "name": "_seller",
          "type": "address"
        },
        {
          "internalType": "uint256",
          "name": "_rating",
          "type": "uint256"
        }
      ],
      "name": "rateSeller",
      "outputs": [],
      "stateMutability": "nonpayable",
      "type": "function"
    },
    {
      "inputs": [
        {
          "internalType": "uint256",
          "name": "_productId",
          "type": "uint256"
        }
      ],
      "name": "removeProduct",
      "outputs": [],
      "stateMutability": "nonpayable",
      "type": "function"
    },
    {
      "inputs": [],
      "name": "sellerCounter",
      "outputs": [
        {
          "internalType": "uint256",
          "name": "",
          "type": "uint256"
        }
      ],
      "stateMutability": "view",
      "type": "function"
    },
    {
      "inputs": [
        {
          "internalType": "address",
          "name": "",
          "type": "address"
        }
      ],
      "name": "sellers",
      "outputs": [
        {
          "internalType": "address",
          "name": "sellerAddress",
          "type": "address"
        },
        {
          "internalType": "uint256",
          "name": "totalRating",
          "type": "uint256"
        },
        {
          "internalType": "uint256",
          "name": "ratingCount",
          "type": "uint256"
        }
      ],
      "stateMutability": "view",
      "type": "function"
    },
    {
      "inputs": [
        {
          "internalType": "uint256",
          "name": "",
          "type": "uint256"
        }
      ],
      "name": "transactions",
      "outputs": [
        {
          "internalType": "address",
          "name": "buyer",
          "type": "address"
        },
        {
          "internalType": "uint256",
          "name": "productId",
          "type": "uint256"
        },
        {
          "internalType": "uint256",
          "name": "quantity",
          "type": "uint256"
        },
        {
          "internalType": "uint256",
          "name": "timestamp",
          "type": "uint256"
        }
      ],
      "stateMutability": "view",
      "type": "function"
    },
    {
      "inputs": [
        {
          "internalType": "uint256",
          "name": "_productId",
          "type": "uint256"
        },
        {
          "internalType": "string",
          "name": "_newName",
          "type": "string"
        },
        {
          "internalType": "string",
          "name": "_newDescription",
          "type": "string"
        },
        {
          "internalType": "uint256",
          "name": "_newPrice",
          "type": "uint256"
        },
        {
          "internalType": "uint256",
          "name": "_newStock",
          "type": "uint256"
        },
        {
          "internalType": "bool",
          "name": "_exists",
          "type": "bool"
        }
      ],
      "name": "updateProduct",
      "outputs": [],
      "stateMutability": "nonpayable",
      "type": "function"
    }
  ],
  "bytecode": "0x6080604052348015600f57600080fd5b506130df8061001f6000396000f3fe6080604052600436106100e85760003560e01c80636d47ab721161008a5780639ace38c2116100595780639ace38c2146102fc578063a04404261461033c578063b9db15b414610358578063c8b675221461039a576100e8565b80636d47ab7214610226578063742ab0d3146102655780637acc0b201461028e5780638a5f6723146102d1576100e8565b806327506f53116100c657806327506f531461016c5780632dc085cf1461019757806355442bae146101c05780635ee95cae146101fd576100e8565b806301cecd14146100ed57806302ee3a52146101165780631f16653b14610141575b600080fd5b3480156100f957600080fd5b50610114600480360381019061010f9190611e57565b6103d7565b005b34801561012257600080fd5b5061012b61077f565b6040516101389190612145565b60405180910390f35b34801561014d57600080fd5b50610156610acf565b6040516101639190612176565b60405180910390f35b34801561017857600080fd5b50610181610ad5565b60405161018e91906122b6565b60405180910390f35b3480156101a357600080fd5b506101be60048036038101906101b99190612304565b610ba8565b005b3480156101cc57600080fd5b506101e760048036038101906101e291906123f5565b610d0f565b6040516101f49190612145565b60405180910390f35b34801561020957600080fd5b50610224600480360381019061021f9190612422565b6110d9565b005b34801561023257600080fd5b5061024d600480360381019061024891906123f5565b61133f565b60405161025c9392919061245e565b60405180910390f35b34801561027157600080fd5b5061028c60048036038101906102879190612495565b611389565b005b34801561029a57600080fd5b506102b560048036038101906102b09190612422565b61159b565b6040516102c8979695949392919061253d565b60405180910390f35b3480156102dd57600080fd5b506102e661171a565b6040516102f39190612176565b60405180910390f35b34801561030857600080fd5b50610323600480360381019061031e9190612422565b611720565b60405161033394939291906125ba565b60405180910390f35b610356600480360381019061035191906125ff565b611780565b005b34801561036457600080fd5b5061037f600480360381019061037a9190612422565b611a71565b6040516103919695949392919061263f565b60405180910390f35b3480156103a657600080fd5b506103c160048036038101906103bc91906123f5565b611bfb565b6040516103ce9190612176565b60405180910390f35b6000821180156103e75750600081115b610426576040517f08c379a000000000000000000000000000000000000000000000000000000000815260040161041d90612720565b60405180910390fd5b600073ffffffffffffffffffffffffffffffffffffffff16600560003373ffffffffffffffffffffffffffffffffffffffff1673ffffffffffffffffffffffffffffffffffffffff16815260200190815260200160002060000160009054906101000a900473ffffffffffffffffffffffffffffffffffffffff1673ffffffffffffffffffffffffffffffffffffffff16036105a55760405180606001604052803373ffffffffffffffffffffffffffffffffffffffff168152602001600081526020016000815250600560003373ffffffffffffffffffffffffffffffffffffffff1673ffffffffffffffffffffffffffffffffffffffff16815260200190815260200160002060008201518160000160006101000a81548173ffffffffffffffffffffffffffffffffffffffff021916908373ffffffffffffffffffffffffffffffffffffffff16021790555060208201518160010155604082015181600201559050506001600081548092919061059f9061276f565b91905055505b6000808154809291906105b79061276f565b91905055506040518060e0016040528060005481526020013373ffffffffffffffffffffffffffffffffffffffff1681526020018581526020018481526020018381526020018281526020016001151581525060036000805481526020019081526020016000206000820151816000015560208201518160010160006101000a81548173ffffffffffffffffffffffffffffffffffffffff021916908373ffffffffffffffffffffffffffffffffffffffff160217905550604082015181600201908161068491906129c3565b50606082015181600301908161069a91906129c3565b506080820151816004015560a0820151816005015560c08201518160060160006101000a81548160ff021916908315150217905550905050600460003373ffffffffffffffffffffffffffffffffffffffff1673ffffffffffffffffffffffffffffffffffffffff16815260200190815260200160002060005490806001815401808255809150506001900390600052602060002001600090919091909150557f0107e99fb43ba873db8a5ce7c34a12cd44cd3041167cff32040ddb6aca455ae66000548584846040516107719493929190612a95565b60405180910390a150505050565b60606000806000600190505b60005481116107df576003600082815260200190815260200160002060060160009054906101000a900460ff16156107cc5781806107c89061276f565b9250505b80806107d79061276f565b91505061078b565b5060008111610823576040517f08c379a000000000000000000000000000000000000000000000000000000000815260040161081a90612b2d565b60405180910390fd5b60008167ffffffffffffffff81111561083f5761083e611cf6565b5b60405190808252806020026020018201604052801561087857816020015b610865611c72565b81526020019060019003908161085d5790505b5090506000600190505b6000548111610ac5576003600082815260200190815260200160002060060160009054906101000a900460ff1615610ab257600360008281526020019081526020016000206040518060e0016040529081600082015481526020016001820160009054906101000a900473ffffffffffffffffffffffffffffffffffffffff1673ffffffffffffffffffffffffffffffffffffffff1673ffffffffffffffffffffffffffffffffffffffff168152602001600282018054610942906127e6565b80601f016020809104026020016040519081016040528092919081815260200182805461096e906127e6565b80156109bb5780601f10610990576101008083540402835291602001916109bb565b820191906000526020600020905b81548152906001019060200180831161099e57829003601f168201915b505050505081526020016003820180546109d4906127e6565b80601f0160208091040260200160405190810160405280929190818152602001828054610a00906127e6565b8015610a4d5780601f10610a2257610100808354040283529160200191610a4d565b820191906000526020600020905b815481529060010190602001808311610a3057829003601f168201915b5050505050815260200160048201548152602001600582015481526020016006820160009054906101000a900460ff161515151581525050828581518110610a9857610a97612b4d565b5b60200260200101819052508380610aae9061276f565b9450505b8080610abd9061276f565b915050610882565b5080935050505090565b60005481565b60606002805480602002602001604051908101604052809291908181526020016000905b82821015610b9f57838290600052602060002090600402016040518060800160405290816000820160009054906101000a900473ffffffffffffffffffffffffffffffffffffffff1673ffffffffffffffffffffffffffffffffffffffff1673ffffffffffffffffffffffffffffffffffffffff168152602001600182015481526020016002820154815260200160038201548152505081526020019060010190610af9565b50505050905090565b853373ffffffffffffffffffffffffffffffffffffffff166003600083815260200190815260200160002060010160009054906101000a900473ffffffffffffffffffffffffffffffffffffffff1673ffffffffffffffffffffffffffffffffffffffff1614610c4d576040517f08c379a0000000000000000000000000000000000000000000000000000000008152600401610c4490612bc8565b60405180910390fd5b600084118015610c5d5750600083115b610c9c576040517f08c379a0000000000000000000000000000000000000000000000000000000008152600401610c9390612c34565b60405180910390fd5b600060036000898152602001908152602001600020905084816004018190555086816002019081610ccd91906129c3565b5085816003019081610cdf91906129c3565b50838160050181905550828160060160006101000a81548160ff0219169083151502179055505050505050505050565b60606000600460008473ffffffffffffffffffffffffffffffffffffffff1673ffffffffffffffffffffffffffffffffffffffff1681526020019081526020016000209050600080600190505b82805490508111610db2576003600082815260200190815260200160002060060160009054906101000a900460ff1615610d9f578180610d9b9061276f565b9250505b8080610daa9061276f565b915050610d5c565b5060008111610df6576040517f08c379a0000000000000000000000000000000000000000000000000000000008152600401610ded90612cc6565b60405180910390fd5b60008167ffffffffffffffff811115610e1257610e11611cf6565b5b604051908082528060200260200182016040528015610e4b57816020015b610e38611c72565b815260200190600190039081610e305790505b5090506000805b84805490508110156110cc5760036000868381548110610e7557610e74612b4d565b5b9060005260206000200154815260200190815260200160002060060160009054906101000a900460ff16156110bf5760036000868381548110610ebb57610eba612b4d565b5b906000526020600020015481526020019081526020016000206040518060e0016040529081600082015481526020016001820160009054906101000a900473ffffffffffffffffffffffffffffffffffffffff1673ffffffffffffffffffffffffffffffffffffffff1673ffffffffffffffffffffffffffffffffffffffff168152602001600282018054610f4f906127e6565b80601f0160208091040260200160405190810160405280929190818152602001828054610f7b906127e6565b8015610fc85780601f10610f9d57610100808354040283529160200191610fc8565b820191906000526020600020905b815481529060010190602001808311610fab57829003601f168201915b50505050508152602001600382018054610fe1906127e6565b80601f016020809104026020016040519081016040528092919081815260200182805461100d906127e6565b801561105a5780601f1061102f5761010080835404028352916020019161105a565b820191906000526020600020905b81548152906001019060200180831161103d57829003601f168201915b5050505050815260200160048201548152602001600582015481526020016006820160009054906101000a900460ff1615151515815250508383815181106110a5576110a4612b4d565b5b602002602001018190525081806110bb9061276f565b9250505b8080600101915050610e52565b5081945050505050919050565b803373ffffffffffffffffffffffffffffffffffffffff166003600083815260200190815260200160002060010160009054906101000a900473ffffffffffffffffffffffffffffffffffffffff1673ffffffffffffffffffffffffffffffffffffffff161461117e576040517f08c379a000000000000000000000000000000000000000000000000000000000815260040161117590612bc8565b60405180910390fd5b60006003600084815260200190815260200160002090508060060160009054906101000a900460ff166111e6576040517f08c379a00000000000000000000000000000000000000000000000000000000081526004016111dd90612d32565b60405180910390fd5b60008160060160006101000a81548160ff0219169083151502179055506000600460003373ffffffffffffffffffffffffffffffffffffffff1673ffffffffffffffffffffffffffffffffffffffff168152602001908152602001600020905060005b8180549050811015611301578482828154811061126957611268612b4d565b5b9060005260206000200154036112f457816001838054905061128b9190612d52565b8154811061129c5761129b612b4d565b5b90600052602060002001548282815481106112ba576112b9612b4d565b5b9060005260206000200181905550818054806112d9576112d8612d86565b5b60019003818190600052602060002001600090559055611301565b8080600101915050611249565b507f07015631cff457b5b13492c2045e70c6305a0a4aa773e432e79abbe2cf52c1eb846040516113319190612176565b60405180910390a150505050565b60056020528060005260406000206000915090508060000160009054906101000a900473ffffffffffffffffffffffffffffffffffffffff16908060010154908060020154905083565b6001811015801561139b575060058111155b6113da576040517f08c379a00000000000000000000000000000000000000000000000000000000081526004016113d190612e01565b60405180910390fd5b600073ffffffffffffffffffffffffffffffffffffffff16600560008473ffffffffffffffffffffffffffffffffffffffff1673ffffffffffffffffffffffffffffffffffffffff16815260200190815260200160002060000160009054906101000a900473ffffffffffffffffffffffffffffffffffffffff1673ffffffffffffffffffffffffffffffffffffffff16036114ab576040517f08c379a00000000000000000000000000000000000000000000000000000000081526004016114a290612e6d565b60405180910390fd5b80600560008473ffffffffffffffffffffffffffffffffffffffff1673ffffffffffffffffffffffffffffffffffffffff16815260200190815260200160002060010160008282546114fd9190612e8d565b92505081905550600560008373ffffffffffffffffffffffffffffffffffffffff1673ffffffffffffffffffffffffffffffffffffffff16815260200190815260200160002060020160008154809291906115579061276f565b91905055507fd1e1a75de6d871246d9a51ee6f672019e38ac805a7adf094efce5b204ad2e84c82823360405161158f93929190612ec1565b60405180910390a15050565b60036020528060005260406000206000915090508060000154908060010160009054906101000a900473ffffffffffffffffffffffffffffffffffffffff16908060020180546115ea906127e6565b80601f0160208091040260200160405190810160405280929190818152602001828054611616906127e6565b80156116635780601f1061163857610100808354040283529160200191611663565b820191906000526020600020905b81548152906001019060200180831161164657829003601f168201915b505050505090806003018054611678906127e6565b80601f01602080910402602001604051908101604052809291908181526020018280546116a4906127e6565b80156116f15780601f106116c6576101008083540402835291602001916116f1565b820191906000526020600020905b8154815290600101906020018083116116d457829003601f168201915b5050505050908060040154908060050154908060060160009054906101000a900460ff16905087565b60015481565b6002818154811061173057600080fd5b90600052602060002090600402016000915090508060000160009054906101000a900473ffffffffffffffffffffffffffffffffffffffff16908060010154908060020154908060030154905084565b60006003600084815260200190815260200160002090508060060160009054906101000a900460ff166117e8576040517f08c379a00000000000000000000000000000000000000000000000000000000081526004016117df90612d32565b60405180910390fd5b818160050154101561182f576040517f08c379a000000000000000000000000000000000000000000000000000000000815260040161182690612f44565b60405180910390fd5b60008282600401546118419190612f64565b905080341015611886576040517f08c379a000000000000000000000000000000000000000000000000000000000815260040161187d90612ff2565b60405180910390fd5b8282600501600082825461189a9190612d52565b92505081905550600260405180608001604052803373ffffffffffffffffffffffffffffffffffffffff16815260200186815260200185815260200142815250908060018154018082558091505060019003906000526020600020906004020160009091909190915060008201518160000160006101000a81548173ffffffffffffffffffffffffffffffffffffffff021916908373ffffffffffffffffffffffffffffffffffffffff16021790555060208201518160010155604082015181600201556060820151816003015550508160010160009054906101000a900473ffffffffffffffffffffffffffffffffffffffff1673ffffffffffffffffffffffffffffffffffffffff166108fc829081150290604051600060405180830381858888f193505050501580156119d4573d6000803e3d6000fd5b5080341115611a30573373ffffffffffffffffffffffffffffffffffffffff166108fc8234611a039190612d52565b9081150290604051600060405180830381858888f19350505050158015611a2e573d6000803e3d6000fd5b505b7fa530f889d7f1bd9a73028e48944ca013ab2c6624a31e3fa26f923f4bb719abd5843385604051611a6393929190613012565b60405180910390a150505050565b600080606080600080600060036000898152602001908152602001600020905080600001548160010160009054906101000a900473ffffffffffffffffffffffffffffffffffffffff16826002018360030184600401548560050154838054611ad9906127e6565b80601f0160208091040260200160405190810160405280929190818152602001828054611b05906127e6565b8015611b525780601f10611b2757610100808354040283529160200191611b52565b820191906000526020600020905b815481529060010190602001808311611b3557829003601f168201915b50505050509350828054611b65906127e6565b80601f0160208091040260200160405190810160405280929190818152602001828054611b91906127e6565b8015611bde5780601f10611bb357610100808354040283529160200191611bde565b820191906000526020600020905b815481529060010190602001808311611bc157829003601f168201915b505050505092509650965096509650965096505091939550919395565b600080600560008473ffffffffffffffffffffffffffffffffffffffff1673ffffffffffffffffffffffffffffffffffffffff16815260200190815260200160002090506000816002015403611c55576000915050611c6d565b80600201548160010154611c699190613078565b9150505b919050565b6040518060e0016040528060008152602001600073ffffffffffffffffffffffffffffffffffffffff168152602001606081526020016060815260200160008152602001600081526020016000151581525090565b6000604051905090565b600080fd5b600080fd5b600080fd5b600080fd5b6000601f19601f8301169050919050565b7f4e487b7100000000000000000000000000000000000000000000000000000000600052604160045260246000fd5b611d2e82611ce5565b810181811067ffffffffffffffff82111715611d4d57611d4c611cf6565b5b80604052505050565b6000611d60611cc7565b9050611d6c8282611d25565b919050565b600067ffffffffffffffff821115611d8c57611d8b611cf6565b5b611d9582611ce5565b9050602081019050919050565b82818337600083830152505050565b6000611dc4611dbf84611d71565b611d56565b905082815260208101848484011115611de057611ddf611ce0565b5b611deb848285611da2565b509392505050565b600082601f830112611e0857611e07611cdb565b5b8135611e18848260208601611db1565b91505092915050565b6000819050919050565b611e3481611e21565b8114611e3f57600080fd5b50565b600081359050611e5181611e2b565b92915050565b60008060008060808587031215611e7157611e70611cd1565b5b600085013567ffffffffffffffff811115611e8f57611e8e611cd6565b5b611e9b87828801611df3565b945050602085013567ffffffffffffffff811115611ebc57611ebb611cd6565b5b611ec887828801611df3565b9350506040611ed987828801611e42565b9250506060611eea87828801611e42565b91505092959194509250565b600081519050919050565b600082825260208201905092915050565b6000819050602082019050919050565b611f2b81611e21565b82525050565b600073ffffffffffffffffffffffffffffffffffffffff82169050919050565b6000611f5c82611f31565b9050919050565b611f6c81611f51565b82525050565b600081519050919050565b600082825260208201905092915050565b60005b83811015611fac578082015181840152602081019050611f91565b60008484015250505050565b6000611fc382611f72565b611fcd8185611f7d565b9350611fdd818560208601611f8e565b611fe681611ce5565b840191505092915050565b60008115159050919050565b61200681611ff1565b82525050565b600060e0830160008301516120246000860182611f22565b5060208301516120376020860182611f63565b506040830151848203604086015261204f8282611fb8565b915050606083015184820360608601526120698282611fb8565b915050608083015161207e6080860182611f22565b5060a083015161209160a0860182611f22565b5060c08301516120a460c0860182611ffd565b508091505092915050565b60006120bb838361200c565b905092915050565b6000602082019050919050565b60006120db82611ef6565b6120e58185611f01565b9350836020820285016120f785611f12565b8060005b85811015612133578484038952815161211485826120af565b945061211f836120c3565b925060208a019950506001810190506120fb565b50829750879550505050505092915050565b6000602082019050818103600083015261215f81846120d0565b905092915050565b61217081611e21565b82525050565b600060208201905061218b6000830184612167565b92915050565b600081519050919050565b600082825260208201905092915050565b6000819050602082019050919050565b60006121c882611f31565b9050919050565b6121d8816121bd565b82525050565b6080820160008201516121f460008501826121cf565b5060208201516122076020850182611f22565b50604082015161221a6040850182611f22565b50606082015161222d6060850182611f22565b50505050565b600061223f83836121de565b60808301905092915050565b6000602082019050919050565b600061226382612191565b61226d818561219c565b9350612278836121ad565b8060005b838110156122a95781516122908882612233565b975061229b8361224b565b92505060018101905061227c565b5085935050505092915050565b600060208201905081810360008301526122d08184612258565b905092915050565b6122e181611ff1565b81146122ec57600080fd5b50565b6000813590506122fe816122d8565b92915050565b60008060008060008060c0878903121561232157612320611cd1565b5b600061232f89828a01611e42565b965050602087013567ffffffffffffffff8111156123505761234f611cd6565b5b61235c89828a01611df3565b955050604087013567ffffffffffffffff81111561237d5761237c611cd6565b5b61238989828a01611df3565b945050606061239a89828a01611e42565b93505060806123ab89828a01611e42565b92505060a06123bc89828a016122ef565b9150509295509295509295565b6123d2816121bd565b81146123dd57600080fd5b50565b6000813590506123ef816123c9565b92915050565b60006020828403121561240b5761240a611cd1565b5b6000612419848285016123e0565b91505092915050565b60006020828403121561243857612437611cd1565b5b600061244684828501611e42565b91505092915050565b612458816121bd565b82525050565b6000606082019050612473600083018661244f565b6124806020830185612167565b61248d6040830184612167565b949350505050565b600080604083850312156124ac576124ab611cd1565b5b60006124ba858286016123e0565b92505060206124cb85828601611e42565b9150509250929050565b6124de81611f51565b82525050565b600082825260208201905092915050565b600061250082611f72565b61250a81856124e4565b935061251a818560208601611f8e565b61252381611ce5565b840191505092915050565b61253781611ff1565b82525050565b600060e082019050612552600083018a612167565b61255f60208301896124d5565b818103604083015261257181886124f5565b9050818103606083015261258581876124f5565b90506125946080830186612167565b6125a160a0830185612167565b6125ae60c083018461252e565b98975050505050505050565b60006080820190506125cf600083018761244f565b6125dc6020830186612167565b6125e96040830185612167565b6125f66060830184612167565b95945050505050565b6000806040838503121561261657612615611cd1565b5b600061262485828601611e42565b925050602061263585828601611e42565b9150509250929050565b600060c0820190506126546000830189612167565b612661602083018861244f565b818103604083015261267381876124f5565b9050818103606083015261268781866124f5565b90506126966080830185612167565b6126a360a0830184612167565b979650505050505050565b7f507269636520616e642073746f636b206d75737420626520706f73697469766560008201527f2e00000000000000000000000000000000000000000000000000000000000000602082015250565b600061270a6021836124e4565b9150612715826126ae565b604082019050919050565b60006020820190508181036000830152612739816126fd565b9050919050565b7f4e487b7100000000000000000000000000000000000000000000000000000000600052601160045260246000fd5b600061277a82611e21565b91507fffffffffffffffffffffffffffffffffffffffffffffffffffffffffffffffff82036127ac576127ab612740565b5b600182019050919050565b7f4e487b7100000000000000000000000000000000000000000000000000000000600052602260045260246000fd5b600060028204905060018216806127fe57607f821691505b602082108103612811576128106127b7565b5b50919050565b60008190508160005260206000209050919050565b60006020601f8301049050919050565b600082821b905092915050565b6000600883026128797fffffffffffffffffffffffffffffffffffffffffffffffffffffffffffffffff8261283c565b612883868361283c565b95508019841693508086168417925050509392505050565b6000819050919050565b60006128c06128bb6128b684611e21565b61289b565b611e21565b9050919050565b6000819050919050565b6128da836128a5565b6128ee6128e6826128c7565b848454612849565b825550505050565b600090565b6129036128f6565b61290e8184846128d1565b505050565b5b81811015612932576129276000826128fb565b600181019050612914565b5050565b601f8211156129775761294881612817565b6129518461282c565b81016020851015612960578190505b61297461296c8561282c565b830182612913565b50505b505050565b600082821c905092915050565b600061299a6000198460080261297c565b1980831691505092915050565b60006129b38383612989565b9150826002028217905092915050565b6129cc82611f72565b67ffffffffffffffff8111156129e5576129e4611cf6565b5b6129ef82546127e6565b6129fa828285612936565b600060209050601f831160018114612a2d5760008415612a1b578287015190505b612a2585826129a7565b865550612a8d565b601f198416612a3b86612817565b60005b82811015612a6357848901518255600182019150602085019450602081019050612a3e565b86831015612a805784890151612a7c601f891682612989565b8355505b6001600288020188555050505b505050505050565b6000608082019050612aaa6000830187612167565b8181036020830152612abc81866124f5565b9050612acb6040830185612167565b612ad86060830184612167565b95945050505050565b7f4e6f2070726f647563747320617661696c61626c652e00000000000000000000600082015250565b6000612b176016836124e4565b9150612b2282612ae1565b602082019050919050565b60006020820190508181036000830152612b4681612b0a565b9050919050565b7f4e487b7100000000000000000000000000000000000000000000000000000000600052603260045260246000fd5b7f4e6f74207468652070726f647563742073656c6c65722e000000000000000000600082015250565b6000612bb26017836124e4565b9150612bbd82612b7c565b602082019050919050565b60006020820190508181036000830152612be181612ba5565b9050919050565b7f496e76616c69642070726f647563742064657461696c732e0000000000000000600082015250565b6000612c1e6018836124e4565b9150612c2982612be8565b602082019050919050565b60006020820190508181036000830152612c4d81612c11565b9050919050565b7f4e6f2070726f647563747320617661696c61626c6520666f7220746865206f7760008201527f6e65722e00000000000000000000000000000000000000000000000000000000602082015250565b6000612cb06024836124e4565b9150612cbb82612c54565b604082019050919050565b60006020820190508181036000830152612cdf81612ca3565b9050919050565b7f50726f6475637420646f6573206e6f742065786973742e000000000000000000600082015250565b6000612d1c6017836124e4565b9150612d2782612ce6565b602082019050919050565b60006020820190508181036000830152612d4b81612d0f565b9050919050565b6000612d5d82611e21565b9150612d6883611e21565b9250828203905081811115612d8057612d7f612740565b5b92915050565b7f4e487b7100000000000000000000000000000000000000000000000000000000600052603160045260246000fd5b7f526174696e67206d757374206265206265747765656e203120616e6420352e00600082015250565b6000612deb601f836124e4565b9150612df682612db5565b602082019050919050565b60006020820190508181036000830152612e1a81612dde565b9050919050565b7f53656c6c657220646f6573206e6f742065786973742e00000000000000000000600082015250565b6000612e576016836124e4565b9150612e6282612e21565b602082019050919050565b60006020820190508181036000830152612e8681612e4a565b9050919050565b6000612e9882611e21565b9150612ea383611e21565b9250828201905080821115612ebb57612eba612740565b5b92915050565b6000606082019050612ed6600083018661244f565b612ee36020830185612167565b612ef0604083018461244f565b949350505050565b7f4e6f7420656e6f756768207175616e7469747920617661696c61626c652e0000600082015250565b6000612f2e601e836124e4565b9150612f3982612ef8565b602082019050919050565b60006020820190508181036000830152612f5d81612f21565b9050919050565b6000612f6f82611e21565b9150612f7a83611e21565b9250828202612f8881611e21565b91508282048414831517612f9f57612f9e612740565b5b5092915050565b7f496e73756666696369656e74207061796d656e742e0000000000000000000000600082015250565b6000612fdc6015836124e4565b9150612fe782612fa6565b602082019050919050565b6000602082019050818103600083015261300b81612fcf565b9050919050565b60006060820190506130276000830186612167565b613034602083018561244f565b6130416040830184612167565b949350505050565b7f4e487b7100000000000000000000000000000000000000000000000000000000600052601260045260246000fd5b600061308382611e21565b915061308e83611e21565b92508261309e5761309d613049565b5b82820490509291505056fea26469706673582212201567117c3eca0c4f3e0595781b8e210a701e93a7fe843c980b90ceca1ecbdba864736f6c634300081c0033",
  "linkReferences": {},
  "deployedLinkReferences": {}
}