{
  "_format": "hh-sol-artifact-1",
  "contractName": "Marketplace",
  "sourceName": "contracts/FruitMarketplace.sol",
  "abi": [
    {
      "anonymous": false,
      "inputs": [
        {
          "indexed": false,
          "internalType": "uint256",
          "name": "productId",
          "type": "uint256"
        },
        {
          "indexed": false,
          "internalType": "string",
          "name": "name",
          "type": "string"
        },
        {
          "indexed": false,
          "internalType": "uint256",
          "name": "price",
          "type": "uint256"
        },
        {
          "indexed": false,
          "internalType": "uint256",
          "name": "quantity",
          "type": "uint256"
        }
      ],
      "name": "ProductAdded",
      "type": "event"
    },
    {
      "anonymous": false,
      "inputs": [
        {
          "indexed": false,
          "internalType": "uint256",
          "name": "productId",
          "type": "uint256"
        },
        {
          "indexed": false,
          "internalType": "address",
          "name": "buyer",
          "type": "address"
        },
        {
          "indexed": false,
          "internalType": "uint256",
          "name": "quantity",
          "type": "uint256"
        }
      ],
      "name": "ProductPurchased",
      "type": "event"
    },
    {
      "anonymous": false,
      "inputs": [
        {
          "indexed": false,
          "internalType": "address",
          "name": "seller",
          "type": "address"
        },
        {
          "indexed": false,
          "internalType": "uint256",
          "name": "rating",
          "type": "uint256"
        },
        {
          "indexed": false,
          "internalType": "address",
          "name": "buyer",
          "type": "address"
        }
      ],
      "name": "SellerRated",
      "type": "event"
    },
    {
      "inputs": [
        {
          "internalType": "string",
          "name": "_name",
          "type": "string"
        },
        {
          "internalType": "uint256",
          "name": "_price",
          "type": "uint256"
        },
        {
          "internalType": "uint256",
          "name": "_quantity",
          "type": "uint256"
        }
      ],
      "name": "addProduct",
      "outputs": [],
      "stateMutability": "nonpayable",
      "type": "function"
    },
    {
      "inputs": [],
      "name": "getAllProducts",
      "outputs": [
        {
          "components": [
            {
              "internalType": "uint256",
              "name": "id",
              "type": "uint256"
            },
            {
              "internalType": "address payable",
              "name": "seller",
              "type": "address"
            },
            {
              "internalType": "string",
              "name": "name",
              "type": "string"
            },
            {
              "internalType": "uint256",
              "name": "price",
              "type": "uint256"
            },
            {
              "internalType": "uint256",
              "name": "quantityAvailable",
              "type": "uint256"
            },
            {
              "internalType": "bool",
              "name": "exists",
              "type": "bool"
            }
          ],
          "internalType": "struct Marketplace.Product[]",
          "name": "",
          "type": "tuple[]"
        }
      ],
      "stateMutability": "view",
      "type": "function"
    },
    {
      "inputs": [],
      "name": "getAllTransactions",
      "outputs": [
        {
          "components": [
            {
              "internalType": "address",
              "name": "buyer",
              "type": "address"
            },
            {
              "internalType": "uint256",
              "name": "productId",
              "type": "uint256"
            },
            {
              "internalType": "uint256",
              "name": "quantity",
              "type": "uint256"
            },
            {
              "internalType": "uint256",
              "name": "timestamp",
              "type": "uint256"
            }
          ],
          "internalType": "struct Marketplace.Transaction[]",
          "name": "",
          "type": "tuple[]"
        }
      ],
      "stateMutability": "view",
      "type": "function"
    },
    {
      "inputs": [
        {
          "internalType": "address",
          "name": "_seller",
          "type": "address"
        }
      ],
      "name": "getAverageRating",
      "outputs": [
        {
          "internalType": "uint256",
          "name": "",
          "type": "uint256"
        }
      ],
      "stateMutability": "view",
      "type": "function"
    },
    {
      "inputs": [
        {
          "internalType": "uint256",
          "name": "_productId",
          "type": "uint256"
        }
      ],
      "name": "getProduct",
      "outputs": [
        {
          "internalType": "uint256",
          "name": "id",
          "type": "uint256"
        },
        {
          "internalType": "address",
          "name": "seller",
          "type": "address"
        },
        {
          "internalType": "string",
          "name": "name",
          "type": "string"
        },
        {
          "internalType": "uint256",
          "name": "price",
          "type": "uint256"
        },
        {
          "internalType": "uint256",
          "name": "quantityAvailable",
          "type": "uint256"
        }
      ],
      "stateMutability": "view",
      "type": "function"
    },
    {
      "inputs": [],
      "name": "productCounter",
      "outputs": [
        {
          "internalType": "uint256",
          "name": "",
          "type": "uint256"
        }
      ],
      "stateMutability": "view",
      "type": "function"
    },
    {
      "inputs": [
        {
          "internalType": "uint256",
          "name": "",
          "type": "uint256"
        }
      ],
      "name": "products",
      "outputs": [
        {
          "internalType": "uint256",
          "name": "id",
          "type": "uint256"
        },
        {
          "internalType": "address payable",
          "name": "seller",
          "type": "address"
        },
        {
          "internalType": "string",
          "name": "name",
          "type": "string"
        },
        {
          "internalType": "uint256",
          "name": "price",
          "type": "uint256"
        },
        {
          "internalType": "uint256",
          "name": "quantityAvailable",
          "type": "uint256"
        },
        {
          "internalType": "bool",
          "name": "exists",
          "type": "bool"
        }
      ],
      "stateMutability": "view",
      "type": "function"
    },
    {
      "inputs": [
        {
          "internalType": "uint256",
          "name": "_productId",
          "type": "uint256"
        },
        {
          "internalType": "uint256",
          "name": "_quantity",
          "type": "uint256"
        }
      ],
      "name": "purchaseProduct",
      "outputs": [],
      "stateMutability": "payable",
      "type": "function"
    },
    {
      "inputs": [
        {
          "internalType": "address",
          "name": "_seller",
          "type": "address"
        },
        {
          "internalType": "uint256",
          "name": "_rating",
          "type": "uint256"
        }
      ],
      "name": "rateSeller",
      "outputs": [],
      "stateMutability": "nonpayable",
      "type": "function"
    },
    {
      "inputs": [],
      "name": "sellerCounter",
      "outputs": [
        {
          "internalType": "uint256",
          "name": "",
          "type": "uint256"
        }
      ],
      "stateMutability": "view",
      "type": "function"
    },
    {
      "inputs": [
        {
          "internalType": "address",
          "name": "",
          "type": "address"
        }
      ],
      "name": "sellers",
      "outputs": [
        {
          "internalType": "address",
          "name": "sellerAddress",
          "type": "address"
        },
        {
          "internalType": "uint256",
          "name": "totalRating",
          "type": "uint256"
        },
        {
          "internalType": "uint256",
          "name": "ratingCount",
          "type": "uint256"
        }
      ],
      "stateMutability": "view",
      "type": "function"
    },
    {
      "inputs": [
        {
          "internalType": "uint256",
          "name": "",
          "type": "uint256"
        }
      ],
      "name": "transactions",
      "outputs": [
        {
          "internalType": "address",
          "name": "buyer",
          "type": "address"
        },
        {
          "internalType": "uint256",
          "name": "productId",
          "type": "uint256"
        },
        {
          "internalType": "uint256",
          "name": "quantity",
          "type": "uint256"
        },
        {
          "internalType": "uint256",
          "name": "timestamp",
          "type": "uint256"
        }
      ],
      "stateMutability": "view",
      "type": "function"
    },
    {
      "inputs": [
        {
          "internalType": "uint256",
          "name": "_productId",
          "type": "uint256"
        },
        {
          "internalType": "uint256",
          "name": "_newPrice",
          "type": "uint256"
        },
        {
          "internalType": "uint256",
          "name": "_newQuantity",
          "type": "uint256"
        }
      ],
      "name": "updateProduct",
      "outputs": [],
      "stateMutability": "nonpayable",
      "type": "function"
    }
  ],
  "bytecode": "0x6080604052348015600f57600080fd5b506124958061001f6000396000f3fe6080604052600436106100c25760003560e01c80637acc0b201161007f578063a044042611610059578063a044042614610286578063b9db15b4146102a2578063c8b67522146102e3578063f85292ca14610320576100c2565b80637acc0b20146101d95780638a5f67231461021b5780639ace38c214610246576100c2565b806302ee3a52146100c7578063125b0b34146100f25780631f16653b1461011b57806327506f53146101465780636d47ab7214610171578063742ab0d3146101b0575b600080fd5b3480156100d357600080fd5b506100dc610349565b6040516100e9919061150c565b60405180910390f35b3480156100fe57600080fd5b50610119600480360381019061011491906116a3565b61053c565b005b34801561012757600080fd5b5061013061085f565b60405161013d9190611721565b60405180910390f35b34801561015257600080fd5b5061015b610865565b6040516101689190611861565b60405180910390f35b34801561017d57600080fd5b50610198600480360381019061019391906118af565b610938565b6040516101a7939291906118eb565b60405180910390f35b3480156101bc57600080fd5b506101d760048036038101906101d29190611922565b610982565b005b3480156101e557600080fd5b5061020060048036038101906101fb9190611962565b610b94565b604051610212969594939291906119f7565b60405180910390f35b34801561022757600080fd5b50610230610c85565b60405161023d9190611721565b60405180910390f35b34801561025257600080fd5b5061026d60048036038101906102689190611962565b610c8b565b60405161027d9493929190611a5f565b60405180910390f35b6102a0600480360381019061029b9190611aa4565b610ceb565b005b3480156102ae57600080fd5b506102c960048036038101906102c49190611962565b610fdc565b6040516102da959493929190611ae4565b60405180910390f35b3480156102ef57600080fd5b5061030a600480360381019061030591906118af565b6110d3565b6040516103179190611721565b60405180910390f35b34801561032c57600080fd5b5061034760048036038101906103429190611b3e565b61114a565b005b60606000805467ffffffffffffffff8111156103685761036761154c565b5b6040519080825280602002602001820160405280156103a157816020015b61038e61126e565b8152602001906001900390816103865790505b509050600080600190505b600054811161053357600360008281526020019081526020016000206040518060c0016040529081600082015481526020016001820160009054906101000a900473ffffffffffffffffffffffffffffffffffffffff1673ffffffffffffffffffffffffffffffffffffffff1673ffffffffffffffffffffffffffffffffffffffff16815260200160028201805461044390611bc0565b80601f016020809104026020016040519081016040528092919081815260200182805461046f90611bc0565b80156104bc5780601f10610491576101008083540402835291602001916104bc565b820191906000526020600020905b81548152906001019060200180831161049f57829003601f168201915b5050505050815260200160038201548152602001600482015481526020016005820160009054906101000a900460ff16151515158152505083838151811061050757610506611bf1565b5b6020026020010181905250818061051d90611c4f565b925050808061052b90611c4f565b9150506103ac565b50819250505090565b60008211801561054c5750600081115b61058b576040517f08c379a000000000000000000000000000000000000000000000000000000000815260040161058290611d09565b60405180910390fd5b600073ffffffffffffffffffffffffffffffffffffffff16600460003373ffffffffffffffffffffffffffffffffffffffff1673ffffffffffffffffffffffffffffffffffffffff16815260200190815260200160002060000160009054906101000a900473ffffffffffffffffffffffffffffffffffffffff1673ffffffffffffffffffffffffffffffffffffffff160361070a5760405180606001604052803373ffffffffffffffffffffffffffffffffffffffff168152602001600081526020016000815250600460003373ffffffffffffffffffffffffffffffffffffffff1673ffffffffffffffffffffffffffffffffffffffff16815260200190815260200160002060008201518160000160006101000a81548173ffffffffffffffffffffffffffffffffffffffff021916908373ffffffffffffffffffffffffffffffffffffffff16021790555060208201518160010155604082015181600201559050506001600081548092919061070490611c4f565b91905055505b60008081548092919061071c90611c4f565b91905055506040518060c0016040528060005481526020013373ffffffffffffffffffffffffffffffffffffffff1681526020018481526020018381526020018281526020016001151581525060036000805481526020019081526020016000206000820151816000015560208201518160010160006101000a81548173ffffffffffffffffffffffffffffffffffffffff021916908373ffffffffffffffffffffffffffffffffffffffff16021790555060408201518160020190816107e39190611ed5565b50606082015181600301556080820151816004015560a08201518160050160006101000a81548160ff0219169083151502179055509050507f0107e99fb43ba873db8a5ce7c34a12cd44cd3041167cff32040ddb6aca455ae66000548484846040516108529493929190611fa7565b60405180910390a1505050565b60005481565b60606002805480602002602001604051908101604052809291908181526020016000905b8282101561092f57838290600052602060002090600402016040518060800160405290816000820160009054906101000a900473ffffffffffffffffffffffffffffffffffffffff1673ffffffffffffffffffffffffffffffffffffffff1673ffffffffffffffffffffffffffffffffffffffff168152602001600182015481526020016002820154815260200160038201548152505081526020019060010190610889565b50505050905090565b60046020528060005260406000206000915090508060000160009054906101000a900473ffffffffffffffffffffffffffffffffffffffff16908060010154908060020154905083565b60018110158015610994575060058111155b6109d3576040517f08c379a00000000000000000000000000000000000000000000000000000000081526004016109ca9061203f565b60405180910390fd5b600073ffffffffffffffffffffffffffffffffffffffff16600460008473ffffffffffffffffffffffffffffffffffffffff1673ffffffffffffffffffffffffffffffffffffffff16815260200190815260200160002060000160009054906101000a900473ffffffffffffffffffffffffffffffffffffffff1673ffffffffffffffffffffffffffffffffffffffff1603610aa4576040517f08c379a0000000000000000000000000000000000000000000000000000000008152600401610a9b906120ab565b60405180910390fd5b80600460008473ffffffffffffffffffffffffffffffffffffffff1673ffffffffffffffffffffffffffffffffffffffff1681526020019081526020016000206001016000828254610af691906120cb565b92505081905550600460008373ffffffffffffffffffffffffffffffffffffffff1673ffffffffffffffffffffffffffffffffffffffff1681526020019081526020016000206002016000815480929190610b5090611c4f565b91905055507fd1e1a75de6d871246d9a51ee6f672019e38ac805a7adf094efce5b204ad2e84c828233604051610b88939291906120ff565b60405180910390a15050565b60036020528060005260406000206000915090508060000154908060010160009054906101000a900473ffffffffffffffffffffffffffffffffffffffff1690806002018054610be390611bc0565b80601f0160208091040260200160405190810160405280929190818152602001828054610c0f90611bc0565b8015610c5c5780601f10610c3157610100808354040283529160200191610c5c565b820191906000526020600020905b815481529060010190602001808311610c3f57829003601f168201915b5050505050908060030154908060040154908060050160009054906101000a900460ff16905086565b60015481565b60028181548110610c9b57600080fd5b90600052602060002090600402016000915090508060000160009054906101000a900473ffffffffffffffffffffffffffffffffffffffff16908060010154908060020154908060030154905084565b60006003600084815260200190815260200160002090508060050160009054906101000a900460ff16610d53576040517f08c379a0000000000000000000000000000000000000000000000000000000008152600401610d4a90612182565b60405180910390fd5b8181600401541015610d9a576040517f08c379a0000000000000000000000000000000000000000000000000000000008152600401610d91906121ee565b60405180910390fd5b6000828260030154610dac919061220e565b905080341015610df1576040517f08c379a0000000000000000000000000000000000000000000000000000000008152600401610de89061229c565b60405180910390fd5b82826004016000828254610e0591906122bc565b92505081905550600260405180608001604052803373ffffffffffffffffffffffffffffffffffffffff16815260200186815260200185815260200142815250908060018154018082558091505060019003906000526020600020906004020160009091909190915060008201518160000160006101000a81548173ffffffffffffffffffffffffffffffffffffffff021916908373ffffffffffffffffffffffffffffffffffffffff16021790555060208201518160010155604082015181600201556060820151816003015550508160010160009054906101000a900473ffffffffffffffffffffffffffffffffffffffff1673ffffffffffffffffffffffffffffffffffffffff166108fc829081150290604051600060405180830381858888f19350505050158015610f3f573d6000803e3d6000fd5b5080341115610f9b573373ffffffffffffffffffffffffffffffffffffffff166108fc8234610f6e91906122bc565b9081150290604051600060405180830381858888f19350505050158015610f99573d6000803e3d6000fd5b505b7fa530f889d7f1bd9a73028e48944ca013ab2c6624a31e3fa26f923f4bb719abd5843385604051610fce939291906122f0565b60405180910390a150505050565b6000806060600080600060036000888152602001908152602001600020905080600001548160010160009054906101000a900473ffffffffffffffffffffffffffffffffffffffff16826002018360030154846004015482805461103f90611bc0565b80601f016020809104026020016040519081016040528092919081815260200182805461106b90611bc0565b80156110b85780601f1061108d576101008083540402835291602001916110b8565b820191906000526020600020905b81548152906001019060200180831161109b57829003601f168201915b50505050509250955095509550955095505091939590929450565b600080600460008473ffffffffffffffffffffffffffffffffffffffff1673ffffffffffffffffffffffffffffffffffffffff1681526020019081526020016000209050600081600201540361112d576000915050611145565b806002015481600101546111419190612356565b9150505b919050565b823373ffffffffffffffffffffffffffffffffffffffff166003600083815260200190815260200160002060010160009054906101000a900473ffffffffffffffffffffffffffffffffffffffff1673ffffffffffffffffffffffffffffffffffffffff16146111ef576040517f08c379a00000000000000000000000000000000000000000000000000000000081526004016111e6906123d3565b60405180910390fd5b6000831180156111ff5750600082115b61123e576040517f08c379a00000000000000000000000000000000000000000000000000000000081526004016112359061243f565b60405180910390fd5b60006003600086815260200190815260200160002090508381600301819055508281600401819055505050505050565b6040518060c0016040528060008152602001600073ffffffffffffffffffffffffffffffffffffffff1681526020016060815260200160008152602001600081526020016000151581525090565b600081519050919050565b600082825260208201905092915050565b6000819050602082019050919050565b6000819050919050565b6112fb816112e8565b82525050565b600073ffffffffffffffffffffffffffffffffffffffff82169050919050565b600061132c82611301565b9050919050565b61133c81611321565b82525050565b600081519050919050565b600082825260208201905092915050565b60005b8381101561137c578082015181840152602081019050611361565b60008484015250505050565b6000601f19601f8301169050919050565b60006113a482611342565b6113ae818561134d565b93506113be81856020860161135e565b6113c781611388565b840191505092915050565b60008115159050919050565b6113e7816113d2565b82525050565b600060c08301600083015161140560008601826112f2565b5060208301516114186020860182611333565b50604083015184820360408601526114308282611399565b915050606083015161144560608601826112f2565b50608083015161145860808601826112f2565b5060a083015161146b60a08601826113de565b508091505092915050565b600061148283836113ed565b905092915050565b6000602082019050919050565b60006114a2826112bc565b6114ac81856112c7565b9350836020820285016114be856112d8565b8060005b858110156114fa57848403895281516114db8582611476565b94506114e68361148a565b925060208a019950506001810190506114c2565b50829750879550505050505092915050565b600060208201905081810360008301526115268184611497565b905092915050565b6000604051905090565b600080fd5b600080fd5b600080fd5b600080fd5b7f4e487b7100000000000000000000000000000000000000000000000000000000600052604160045260246000fd5b61158482611388565b810181811067ffffffffffffffff821117156115a3576115a261154c565b5b80604052505050565b60006115b661152e565b90506115c2828261157b565b919050565b600067ffffffffffffffff8211156115e2576115e161154c565b5b6115eb82611388565b9050602081019050919050565b82818337600083830152505050565b600061161a611615846115c7565b6115ac565b90508281526020810184848401111561163657611635611547565b5b6116418482856115f8565b509392505050565b600082601f83011261165e5761165d611542565b5b813561166e848260208601611607565b91505092915050565b611680816112e8565b811461168b57600080fd5b50565b60008135905061169d81611677565b92915050565b6000806000606084860312156116bc576116bb611538565b5b600084013567ffffffffffffffff8111156116da576116d961153d565b5b6116e686828701611649565b93505060206116f78682870161168e565b92505060406117088682870161168e565b9150509250925092565b61171b816112e8565b82525050565b60006020820190506117366000830184611712565b92915050565b600081519050919050565b600082825260208201905092915050565b6000819050602082019050919050565b600061177382611301565b9050919050565b61178381611768565b82525050565b60808201600082015161179f600085018261177a565b5060208201516117b260208501826112f2565b5060408201516117c560408501826112f2565b5060608201516117d860608501826112f2565b50505050565b60006117ea8383611789565b60808301905092915050565b6000602082019050919050565b600061180e8261173c565b6118188185611747565b935061182383611758565b8060005b8381101561185457815161183b88826117de565b9750611846836117f6565b925050600181019050611827565b5085935050505092915050565b6000602082019050818103600083015261187b8184611803565b905092915050565b61188c81611768565b811461189757600080fd5b50565b6000813590506118a981611883565b92915050565b6000602082840312156118c5576118c4611538565b5b60006118d38482850161189a565b91505092915050565b6118e581611768565b82525050565b600060608201905061190060008301866118dc565b61190d6020830185611712565b61191a6040830184611712565b949350505050565b6000806040838503121561193957611938611538565b5b60006119478582860161189a565b92505060206119588582860161168e565b9150509250929050565b60006020828403121561197857611977611538565b5b60006119868482850161168e565b91505092915050565b61199881611321565b82525050565b600082825260208201905092915050565b60006119ba82611342565b6119c4818561199e565b93506119d481856020860161135e565b6119dd81611388565b840191505092915050565b6119f1816113d2565b82525050565b600060c082019050611a0c6000830189611712565b611a19602083018861198f565b8181036040830152611a2b81876119af565b9050611a3a6060830186611712565b611a476080830185611712565b611a5460a08301846119e8565b979650505050505050565b6000608082019050611a7460008301876118dc565b611a816020830186611712565b611a8e6040830185611712565b611a9b6060830184611712565b95945050505050565b60008060408385031215611abb57611aba611538565b5b6000611ac98582860161168e565b9250506020611ada8582860161168e565b9150509250929050565b600060a082019050611af96000830188611712565b611b0660208301876118dc565b8181036040830152611b1881866119af565b9050611b276060830185611712565b611b346080830184611712565b9695505050505050565b600080600060608486031215611b5757611b56611538565b5b6000611b658682870161168e565b9350506020611b768682870161168e565b9250506040611b878682870161168e565b9150509250925092565b7f4e487b7100000000000000000000000000000000000000000000000000000000600052602260045260246000fd5b60006002820490506001821680611bd857607f821691505b602082108103611beb57611bea611b91565b5b50919050565b7f4e487b7100000000000000000000000000000000000000000000000000000000600052603260045260246000fd5b7f4e487b7100000000000000000000000000000000000000000000000000000000600052601160045260246000fd5b6000611c5a826112e8565b91507fffffffffffffffffffffffffffffffffffffffffffffffffffffffffffffffff8203611c8c57611c8b611c20565b5b600182019050919050565b7f507269636520616e64207175616e74697479206d75737420626520706f73697460008201527f6976652e00000000000000000000000000000000000000000000000000000000602082015250565b6000611cf360248361199e565b9150611cfe82611c97565b604082019050919050565b60006020820190508181036000830152611d2281611ce6565b9050919050565b60008190508160005260206000209050919050565b60006020601f8301049050919050565b600082821b905092915050565b600060088302611d8b7fffffffffffffffffffffffffffffffffffffffffffffffffffffffffffffffff82611d4e565b611d958683611d4e565b95508019841693508086168417925050509392505050565b6000819050919050565b6000611dd2611dcd611dc8846112e8565b611dad565b6112e8565b9050919050565b6000819050919050565b611dec83611db7565b611e00611df882611dd9565b848454611d5b565b825550505050565b600090565b611e15611e08565b611e20818484611de3565b505050565b5b81811015611e4457611e39600082611e0d565b600181019050611e26565b5050565b601f821115611e8957611e5a81611d29565b611e6384611d3e565b81016020851015611e72578190505b611e86611e7e85611d3e565b830182611e25565b50505b505050565b600082821c905092915050565b6000611eac60001984600802611e8e565b1980831691505092915050565b6000611ec58383611e9b565b9150826002028217905092915050565b611ede82611342565b67ffffffffffffffff811115611ef757611ef661154c565b5b611f018254611bc0565b611f0c828285611e48565b600060209050601f831160018114611f3f5760008415611f2d578287015190505b611f378582611eb9565b865550611f9f565b601f198416611f4d86611d29565b60005b82811015611f7557848901518255600182019150602085019450602081019050611f50565b86831015611f925784890151611f8e601f891682611e9b565b8355505b6001600288020188555050505b505050505050565b6000608082019050611fbc6000830187611712565b8181036020830152611fce81866119af565b9050611fdd6040830185611712565b611fea6060830184611712565b95945050505050565b7f526174696e67206d757374206265206265747765656e203120616e6420352e00600082015250565b6000612029601f8361199e565b915061203482611ff3565b602082019050919050565b600060208201905081810360008301526120588161201c565b9050919050565b7f53656c6c657220646f6573206e6f742065786973742e00000000000000000000600082015250565b600061209560168361199e565b91506120a08261205f565b602082019050919050565b600060208201905081810360008301526120c481612088565b9050919050565b60006120d6826112e8565b91506120e1836112e8565b92508282019050808211156120f9576120f8611c20565b5b92915050565b600060608201905061211460008301866118dc565b6121216020830185611712565b61212e60408301846118dc565b949350505050565b7f50726f6475637420646f6573206e6f742065786973742e000000000000000000600082015250565b600061216c60178361199e565b915061217782612136565b602082019050919050565b6000602082019050818103600083015261219b8161215f565b9050919050565b7f4e6f7420656e6f756768207175616e7469747920617661696c61626c652e0000600082015250565b60006121d8601e8361199e565b91506121e3826121a2565b602082019050919050565b60006020820190508181036000830152612207816121cb565b9050919050565b6000612219826112e8565b9150612224836112e8565b9250828202612232816112e8565b9150828204841483151761224957612248611c20565b5b5092915050565b7f496e73756666696369656e74207061796d656e742e0000000000000000000000600082015250565b600061228660158361199e565b915061229182612250565b602082019050919050565b600060208201905081810360008301526122b581612279565b9050919050565b60006122c7826112e8565b91506122d2836112e8565b92508282039050818111156122ea576122e9611c20565b5b92915050565b60006060820190506123056000830186611712565b61231260208301856118dc565b61231f6040830184611712565b949350505050565b7f4e487b7100000000000000000000000000000000000000000000000000000000600052601260045260246000fd5b6000612361826112e8565b915061236c836112e8565b92508261237c5761237b612327565b5b828204905092915050565b7f4e6f74207468652070726f647563742073656c6c65722e000000000000000000600082015250565b60006123bd60178361199e565b91506123c882612387565b602082019050919050565b600060208201905081810360008301526123ec816123b0565b9050919050565b7f496e76616c69642070726f647563742064657461696c732e0000000000000000600082015250565b600061242960188361199e565b9150612434826123f3565b602082019050919050565b600060208201905081810360008301526124588161241c565b905091905056fea264697066735822122069a6fab1952f7138aee0486775ce9e96fa5c7beb41b0a57f5ad7a1261c99d4f364736f6c634300081c0033",
  "linkReferences": {},
  "deployedLinkReferences": {}
}